:020000040000fa
:080000000002040000000000f2
:020000040000fa
:04000800e40200000e
:020000040000fa
:04000c00e40200000a
:020000040000fa
:04001000e402000006
:020000040000fa
:04001400e402000002
:020000040000fa
:04001800e4020000fe
:020000040000fa
:04001c00e4020000fa
:020000040000fa
:04002000e4020000f6
:020000040000fa
:04002400e4020000f2
:020000040000fa
:04002800e4020000ee
:020000040000fa
:04002c00e4020000ea
:020000040000fa
:04003000e4020000e6
:020000040000fa
:04003400cc020000fa
:020000040000fa
:04003800e4020000de
:020000040000fa
:04003c00e4020000da
:020000040000fa
:04004000e4020000d6
:020000040000fa
:04004400e4020000d2
:020000040000fa
:04004800e4020000ce
:020000040000fa
:04004c00e4020000ca
:020000040000fa
:04005000e4020000c6
:020000040000fa
:04005400e4020000c2
:020000040000fa
:04005800e4020000be
:020000040000fa
:04005c00e4020000ba
:020000040000fa
:04006000e4020000b6
:020000040000fa
:04006400e4020000b2
:020000040000fa
:04006800e4020000ae
:020000040000fa
:04006c00e4020000aa
:020000040000fa
:04007000e4020000a6
:020000040000fa
:04007400e4020000a2
:020000040000fa
:04007800e40200009e
:020000040000fa
:04007c00e40200009a
:020000040000fa
:04008000e402000096
:020000040000fa
:04008400e402000092
:020000040000fa
:04008800e40200008e
:020000040000fa
:04008c00e40200008a
:020000040000fa
:04009000e402000086
:020000040000fa
:04009400e402000082
:020000040000fa
:04009800e40200007e
:020000040000fa
:04009c00e40200007a
:020000040000fa
:0400a000e402000076
:020000040000fa
:0400a400e402000072
:020000040000fa
:0400a800e40200006e
:020000040000fa
:0400ac00e40200006a
:020000040000fa
:0400b000e402000066
:020000040000fa
:0400b400e402000062
:020000040000fa
:0400b800e40200005e
:020000040000fa
:0400bc00e40200005a
:020000040000fa
:0400c000e402000056
:020000040000fa
:0400c400e402000052
:020000040000fa
:0400c800e40200004e
:020000040000fa
:0400cc00e40200004a
:020000040000fa
:0400d000e402000046
:020000040000fa
:0400d400e402000042
:020000040000fa
:0400d800e40200003e
:020000040000fa
:0400dc00e40200003a
:020000040000fa
:0400e000e402000036
:020000040000fa
:0400e400e402000032
:020000040000fa
:0400e800e40200002e
:020000040000fa
:0400ec00e40200002a
:020000040000fa
:0400f000e402000026
:020000040000fa
:0400f400e402000022
:020000040000fa
:0400f800e40200001e
:020000040000fa
:0400fc00e40200001a
:020000040000fa
:04010000e402000015
:020000040000fa
:04010400e402000011
:020000040000fa
:04010800e40200000d
:020000040000fa
:04010c00e402000009
:020000040000fa
:04011000e402000005
:020000040000fa
:04011400e402000001
:020000040000fa
:04011800e4020000fd
:020000040000fa
:04011c00e4020000f9
:020000040000fa
:04012000e4020000f5
:020000040000fa
:04012400e4020000f1
:020000040000fa
:04012800e4020000ed
:020000040000fa
:04012c00e4020000e9
:020000040000fa
:04013000e4020000e5
:020000040000fa
:04013400e4020000e1
:020000040000fa
:04013800e4020000dd
:020000040000fa
:04013c00e4020000d9
:020000040000fa
:04014000e4020000d5
:020000040000fa
:04014400e4020000d1
:020000040000fa
:04014800e4020000cd
:020000040000fa
:04020800e40200000c
:020000040000fa
:04020c00e402000008
:020000040000fa
:04021000e402000004
:020000040000fa
:04021400e402000000
:020000040000fa
:04021800e4020000fc
:020000040000fa
:04021c00e4020000f8
:020000040000fa
:04022000e4020000f4
:020000040000fa
:04022400e4020000f0
:020000040000fa
:04022800e4020000ec
:020000040000fa
:04022c00e4020000e8
:020000040000fa
:04023000e4020000e4
:020000040000fa
:04023400cc020000f8
:020000040000fa
:04023800e4020000dc
:020000040000fa
:04023c00e4020000d8
:020000040000fa
:04024000e4020000d4
:020000040000fa
:04024400e4020000d0
:020000040000fa
:04024800e4020000cc
:020000040000fa
:04024c00e4020000c8
:020000040000fa
:04025000e4020000c4
:020000040000fa
:04025400e4020000c0
:020000040000fa
:04025800e4020000bc
:020000040000fa
:04025c00e4020000b8
:020000040000fa
:04026000e4020000b4
:020000040000fa
:04026400e4020000b0
:020000040000fa
:04026800e4020000ac
:020000040000fa
:04026c00e4020000a8
:020000040000fa
:04027000e4020000a4
:020000040000fa
:04027400e4020000a0
:020000040000fa
:04027800e40200009c
:020000040000fa
:04027c00e402000098
:020000040000fa
:04028000e402000094
:020000040000fa
:04028400e402000090
:020000040000fa
:04028800e40200008c
:020000040000fa
:04028c00e402000088
:020000040000fa
:04029000e402000084
:020000040000fa
:04029400e402000080
:020000040000fa
:04029800e40200007c
:020000040000fa
:04029c00e402000078
:020000040000fa
:0402a000e402000074
:020000040000fa
:0402a400e402000070
:020000040000fa
:0402a800e40200006c
:020000040000fa
:0402ac00e402000068
:020000040000fa
:0402b000e402000064
:020000040000fa
:0402b400e402000060
:020000040000fa
:0402b800e40200005c
:020000040000fa
:0402bc00e402000058
:020000040000fa
:0402c000e402000054
:020000040000fa
:0402c400e402000050
:020000040000fa
:0402c800e40200004c
:020000040000fa
:0402cc00e402000048
:020000040000fa
:0402d000e402000044
:020000040000fa
:0402d400e402000040
:020000040000fa
:0402d800e40200003c
:020000040000fa
:0402dc00e402000038
:020000040000fa
:0402e000e402000034
:020000040000fa
:0402e400e402000030
:020000040000fa
:0402e800e40200002c
:020000040000fa
:0402ec00e402000028
:020000040000fa
:0402f000e402000024
:020000040000fa
:0402f400e402000020
:020000040000fa
:0402f800e40200001c
:020000040000fa
:0402fc00e402000018
:020000040000fa
:04030000e402000013
:020000040000fa
:04030400e40200000f
:020000040000fa
:04030800e40200000b
:020000040000fa
:04030c00e402000007
:020000040000fa
:04031000e402000003
:020000040000fa
:04031400e4020000ff
:020000040000fa
:04031800e4020000fb
:020000040000fa
:04031c00e4020000f7
:020000040000fa
:04032000e4020000f3
:020000040000fa
:04032400e4020000ef
:020000040000fa
:04032800e4020000eb
:020000040000fa
:04032c00e4020000e7
:020000040000fa
:04033000e4020000e3
:020000040000fa
:04033400e4020000df
:020000040000fa
:04033800e4020000db
:020000040000fa
:04033c00e4020000d7
:020000040000fa
:04034000e4020000d3
:020000040000fa
:04034400e4020000cf
:020000040000fa
:04034800e4020000cb
:020000040000fa
:10040000af7121000e7f22000e0188000000000065
:10041000000020000000e000020032000001200087
:100420002002880014000700690007000000e000b7
:1004300003003a00804c2200010020000200370037
:100440000000200001002000810f70000100320038
:1004500014000700000020000000e000020032004d
:1004600000000200000000008a20020000000000de
:100470000040da000000fe004440a9004080200057
:100480000000e0000300320000002000a00188000e
:100490004440a800000006008a1f78008b1f7800e7
:1004a0000000060091018800800478000000eb0045
:1004b0001a003700e284440032a0b4009905ba0063
:1004c000e284440032a0b4009906ba00e2844400f9
:1004d00032a0b4000006eb00476fde00fd07b2005b
:1004e000636ce10003003a00ebff07000000eb0043
:1004f0000a003700606ce10004003a00005deb0088
:100500008b05e900fdff3e00040037006168e10053
:10051000010032000086eb000b00070019c7ba008b
:100520001905ba000e04e00003003a000a00e000da
:10053000e0ff3a0000000600fe07b2009e018800be
:100540008a047800f5ff3700395dba008b05e900b1
:100550000c003200295dba008b05e900080032006a
:100560000c00e00003003a00e284440032a0b40032
:10057000f5ff370019ddba008b05e900faff3a00f4
:100580008904e800e184440032a0b40000000600c1
:1005900000000000000000003400f800881f780010
:1005a00008002000a80188004f0478000000fa002d
:1005b00005e1a9008460a9000021ef000080fa0095
:1005c0003400f900004006000040da000000fe00a0
:1005d0000000050003f0a200889fbe008a9fbe00b5
:1005e0008c1f7800b8000700bf0033006450e100a2
:1005f0004f0032006420e1005200320003826c00a0
:1006000007003b000905d0000306d000820f54000c
:100610000c065d00020039000200320089017800fa
:10062000030678008582550004003d000003fd00ac
:100630008103fd008502ea008b854200840f720071
:1006400002003b0060001000e08018006011b8005c
:100650000005eb007a28e1000a0039000600780066
:10066000c75ddd00f707b200878075002d003700f9
:10067000828171000a017800610560008180d100eb
:100680000080d3008502e900f9ff3b00060440002a
:100690008784480002003b0060041400e0841c00d2
:1006a0000988a300070032008a81710082817100ed
:1006b000610164008904d1000884d3008b05e8003f
:1006c000170037000978a30013003a000b00e00080
:1006d000130034008b05e9000804440089844c00b1
:1006e0000a4474000978a3000d003a000b00e000f2
:1006f000070034008b05e9000804440089844c009d
:1007000001003a000b0020000978a300f7ff320037
:100710000001eb0002003700828171000a017800bd
:100720002e0007000cf0a70001f0a00077003700b2
:100730006420e10002003a00838f6c0077003300f0
:100740000801be000200be00700037000001be00bc
:10075000480007000470a70003f0a1006509b1007c
:10076000160032000d0035006828e1000600350053
:10077000f0ff2f00f1ff27000300e00013003b0013
:1007800001002800000005000000400081804800b2
:100790008502e900fcff3a0008003700f88f4200ac
:1007a00002003c008000eb00000005008100d10049
:1007b0000080d3008502e800fcff3a000300e0005f
:1007c00002003b0060001000e080180000000600fe
:1007d0004f89de0082017800870037008100200009
:1007e000618055000b003d000b00200061fe2f00d2
:1007f0000100e1001d00340082817100610164008c
:100800008904d1000884d3000000e800faff3a0010
:1008100071002000610064000300700002006000ad
:100820000900320061044400e0844c000988a500fe
:10083000050032008b05e8006808e10002003a007c
:100840008904d1000884d300f20f20000258e1008f
:1008500005003d00c75ddd00f907b2008980750025
:1008600008007800000006000bf827008b007800d5
:1008700000000500c70ade00f107b200f50fb20064
:1008800008003200e1cf4200020032000170a000f7
:1008900024000500810f70000100320004080500eb
:1008a00044000500810f700002003a0014000500aa
:1008b0008502e9000000400081c04800fcff3b00c9
:1008c0000170a000240005000004be00e9ff07003d
:1008d0000003be000405be000200be00e5ff0700e5
:1008e000844f7500000006000200be006450e10065
:1008f000050036006420e100020036000968a3000c
:1009000001003a000800be000160a0004f06780018
:100910004f05be004f04be0000000600f0ff2f0090
:10092000f1ff2700f9ff3700889fbe008a9fbe00b5
:100930008c1f7800e4ff0700ebff330003866c0098
:100940006450e100240032006420e10027003200fe
:100950006150e100220032006120e10021003200fc
:100960008b854200eb07b1000134b800003ab800b3
:100970000804420089844a00013ab8000030b800f7
:100980008880400009014a00040033000000400054
:1009900081804800020149008b05e900c909dd009a
:1009a000830170000100320013002000c814de0033
:1009b0004814dd004709de001200b200c808de005e
:1009c0000884700085ff070001f0a1000cf0a7006b
:1009d00001f0a000cdff37006120e100cfff320021
:1009e0000801be000200be00f7ff37006150e100c1
:1009f000fcff3a00c9ff3700881f78000304780025
:100a00000300e00007003d0060001000e0801800d7
:100a100060011900e081190002003b0001f02d0087
:100a2000030037000400070008f0a70001f0a00051
:100a30004f04780000000600889fbe008a9fbe0019
:100a400000827000040271000482710026003200ee
:100a50000004be000200be006011b8006b09200057
:100a6000950220000182cf000a0039000541b10043
:100a70000082cf00070039000541b1000982cf0094
:100a8000040039000541b1000882cf00010039009f
:100a90000541b10005425200120032000a003b003d
:100aa00082817100610164008100d1000080d30067
:100ab0008984d3000884d3008b05e8000442e80051
:100ac000f7ff3a00070037000804440089844c000f
:100ad00000004800818048008b05e9000442e900dd
:100ae000f9ff3a003dff07004f05be004f04be006e
:100af00000000600889fbe0090b280000000e00069
:100b00000100320000000100a0b280000000e000ff
:100b10000100320000000100006521001004e00027
:100b200022003a00b0b88000c1b8800088002000e0
:100b3000d26026009301200031040700f2352f0017
:100b4000e3c6230000004100818049000804e90059
:100b5000f7ff3a00686521000908200088844400f6
:100b6000d26026009301200025040700f2352f00f3
:100b7000e3c62300000041008180490000acbe00b4
:100b8000890f5400f6ff3a00b0b88800c1b8880059
:100b9000b0b68000c1b68000b0b28800c1b2880093
:100ba00011c0b3000065210001487800d260260022
:100bb00093012000b0b88000c1b880001004070085
:100bc000f2352f00e3c62300000241008182490074
:100bd000b4b88800c5b888006065210010007800ae
:100be0007f0160004211dd00a0652100020140008c
:100bf0001200be00b0b28800c1b288000489be00f5
:100c00000100780000f0a1004f04be0000000600c3
:100c1000881f78000204780008017800c4000700eb
:100c2000080040004f047800000006000000fa00b1
:100c3000881f780000047800ea8157003fb99700c8
:100c40008800780080602000070007000000e000b6
:100c5000020035008040eb00017478004f047800fa
:100c60000080fa00000006006200fa00889fbe00c3
:100c70008a1f78000005780081047800020478005b
:100c80008300780080f92f000f00400077010700f3
:100c90009a979f00a9979f000000eb00b09f9f00cc
:100ca0001885fb008a04fb000a05ea004f55de00a8
:100cb00050022000808f54000d003200e10f5500db
:100cc0000b003a000a017800880078002f90970006
:100cd0009f91970003000100a0979f000000e00093
:100ce0008e0032003f9897000000e800b09f9f0000
:100cf0000a04440050022000808f54000400320097
:100d00000900e000e6ff3a003f98970084003700b2
:100d10000000eb00909f9f00809f9f00f0979f0036
:100d2000e0979f00d0979f00c0979f000700370073
:100d300001712100010050000000400041702100bd
:100d400061007800df98970001007000d09f9f003d
:100d50008804780009047800384578008a00fb0090
:100d600000712100790007000000e000f0ff3a0068
:100d7000a1c2b300814f55000e003a00cf88970002
:100d80000180e900c08f9f0010007800c09f9f0085
:100d90000000e00005003d000000ea00c09f9f0049
:100da0005f9897000020a000d09f9f000904e800f2
:100db0000f003700c09f9f000000eb0005003700c8
:100dc000f2ff2700820f5000020032006a01b900d2
:100dd000028040000904780088047800b900fb0014
:100de0000103b100e98f5000f5ff3600c09f9f005e
:100df000e0c2b300984f1000020032000080eb0008
:100e000019003700a0c2b300d84f100007003a0005
:100e1000cf8897000180e900c08f9f001000780004
:100e2000a09f9f000804e800100037000000eb00be
:100e3000a09f9f008800780005003700f3ff27007f
:100e4000830f5000020032006a02b9000400410022
:100e500001047800880078003101fb000203b10032
:100e6000e90f5100f5ff3600a09f9f0098447800dd
:100e70008900fb00c06f2100340007000000e00083
:100e8000020032000804e800010037008044eb0053
:100e9000c97f9f0080c6b30080cf540004003a0091
:100ea00098cf14000a003a00664050000600370050
:100eb000c0c6b30080cf540005003a0098cf14009c
:100ec00003003a0065404000c07f9f000804e8002e
:100ed0001801fb00e3fb2f008f81410081f92f00f7
:100ee0008f804000a0f92f000f004000e1000700b4
:100ef0000000e00009003a00e1fb2f008f80400075
:100f0000a0f92f000f0040001c0007000000e000c7
:100f1000020035000804e80061ff37000080eb00a4
:100f20004f0578004f04be000080fa000000060064
:100f30008001780002003700b15978000201e90011
:100f40000200e000fcff3a0000000600020037004b
:100f50000304e0000600320000017800020078007f
:100f6000b041780081cf5100f9ff3a00010037000d
:100f70000001eb0002007800000006000400fa0007
:100f8000889fbe008a9fbe008c1f780000047800f6
:100f900001067800f80d90007800900080855500db
:100fa000080890008085550018089000808555003d
:100fb00028089000808555003808900080855500ed
:100fc00048089000808555000002220090bf9f00d5
:100fd00000032300a0bf9f00081090000028a3007a
:100fe00015003a000b00e000130034000b057800f8
:100ff0008a047800e20f5500010036002900200025
:10100000c801900009017800ee8057005800900058
:1010100003000100500498000000e0008c00320042
:101020006808900009004000600c98000905550010
:101030004240a900eeff3c00780190000200e00071
:101040000c003400c80190008c007800580090001b
:1010500003000100500498008080eb000000e000d5
:101060007c003200e808900078009000008040008a
:10107000600c9800880c90000900e000110034001a
:1010800009057800e28f5400010036002a00200094
:10109000c80190000a017800ec80570058009000c9
:1010a00003000100500498000000e00068003200d6
:1010b000680890000a004000600c98008a84540080
:1010c000edff3700180990000200e0000c0034002a
:1010d000c8019000e8009000580090000300010053
:1010e000500498008080eb000000e00059003200be
:1010f000e80890001808900000804000600c9800fc
:10110000a80c90000900e0001100340009057800e7
:10111000e28f5400010036002a002000c801900030
:101120000a017800ec80570058009000030001008d
:10113000500498000000e00045003200680890006c
:101140000a004000600c98008a845400edff3700cc
:10115000380990000200e0000e003400e800900022
:101160001808900080804000c8019000580090004e
:1011700003000100500498008080eb000000e000b4
:1011800034003200e80890003808900000804000e9
:10119000600c9800c80c90000900e00011003400b9
:1011a00009057800e28f5400010036002a00200073
:1011b000c80190000a017800ec80570058009000a8
:1011c00003000100500498000000e00020003200fd
:1011d000680890000a004000600c98008a8454005f
:1011e000edff3700081090008000eb000028a300fe
:1011f000180032000b00e000160034008b04780069
:1012000009057800e28f5400010036002a00200012
:10121000c80190000a017800ee8057005800900045
:1012200003000100500498000000e00008003200b4
:10123000680890000a004000600c98008a845400fe
:101240004240a900eeff3c008000eb0001003700a7
:101250008080eb00010078004f0678004f05be004b
:101260004f04be000080fa0000000600010878006c
:1012700000000600889fbe008a9fbe00e4c6b3003f
:10128000844f5100be00320010003c006b425200ff
:10129000844f51001800320005003c0054c2b300d6
:1012a000844f5100f600320084c5b3000f003700b0
:1012b00044c6b300844f510014003200654242001e
:1012c000844f5100f1003a001000370004c7b3000a
:1012d000844f5100dd003200560035006542420067
:1012e000844f51005300320063424200844f51004a
:1012f000e6003a004f0037001181e90082087800cb
:10130000f000900012417800de003700206290006b
:10131000c5c6b300854f520007003a00910278001d
:1013200064825200840878001402be004fabde00d5
:10133000860378001400370015c7b300854f5200ac
:1013400003003a00110478006802540005003700d9
:10135000a5c6b300854f520006003a0091047800fc
:1013600068825400840878005403be004402be0022
:10137000050037001182e900840878001402780023
:10138000cfa2de00612bb9000498be000690be001b
:10139000a060900088c6b30088cf50000d003200d6
:1013a00028c6b30088cf500004003a000402fb00b6
:1013b000cfa2de00612bb9000800370048c7b30098
:1013c00088cf5000030032006644440088cf5000ac
:1013d00004003a00cfa2de00612bb9000498be00e1
:1013e0000690be003002be002003be00f000900058
:1013f000e00f5200e08f5a00e00f5b00e08f5b00cf
:1014000002003d00d4c2b300080037000012900073
:101410000418a30002003200b4c2b3000300370076
:101420000408a3005100320004c2b30084f1780024
:101430004c00370020629000c5c6b300854f5200b3
:1014400008003a001105780064025500840878000d
:101450001404be006055b8000802be000a03be00b6
:101460001400370015c7b300854f520003003a003f
:10147000910478006882540005003700a5c6b300c7
:10148000854f520006003a001105780068025500a9
:10149000840878005403be004402be0005003700f3
:1014a0001182e90084087800140278008002eb00c1
:1014b0006033b8000498be000690be00a0609000a3
:1014c00088c6b30088cf50000d00320028c6b30094
:1014d00088cf500004003a000482fb008002eb0039
:1014e0006033b8000800370048c7b30088cf500009
:1014f000030032006644440088cf500004003a00e4
:101500008002eb006033b8000498be000690be0075
:10151000801090000138a300140032003002be0099
:101520002003be00e00f5200e08f5a00e00f5b0086
:10153000e08f5b000d00320081c7b300814f510086
:101540000300320081c5b300814f510007003a000b
:10155000f000900004c3b30084f178008100e8003b
:1015600082f178008100e80071009800f00090009e
:101570008181410063009800824078003e0037007e
:10158000a0619000c4c6b3001181e90084cf51006e
:10159000220032000a003c006442520084cf510015
:1015a0002500320004c2e80084cf5100130032004d
:1015b0006842520084cf51001e003a000a003700f2
:1015c00044c7b30084cf51001b0032006642420082
:1015d00084cf5100180032006942520084cf51007c
:1015e00014003a0005003700820878009200780065
:1015f00040589000804878002c003700820878001e
:1016000092007800600a9000cfa2de00612bb90042
:101610008498be008690be002400370082087800bf
:101620009200780060099000cf91de008288be00b1
:101630001e0037001181e9008208780092007800ce
:101640006008900080087800180037001181e900d8
:101650008208780012027800cfa2de00612bb90068
:101660000498be000690be00f00090008181410009
:101670006300980081c7b300100007000b0037001b
:10168000f000900082f1780006003700f000900032
:10169000818141000204e00001003a0052c2b3001f
:1016a000824978008100e800710098000000eb009a
:1016b0004f05be004f04be0000000600fc87470037
:1016c000889fbe008a9fbe008c9fbe008e1f780040
:1016d0000006780080c5b30080cf50000a003200b9
:1016e0007740400080cf50000a003200694040003f
:1016f00080cf50000b003200b06e210080bf9f00f1
:10170000ae0020000a003700a26d210082bf9f00ba
:1017100006003700b36e210083bf9f008e002000bb
:1017200003003700b46e210084bf9f000e0120002b
:101730003c02be002c03be000605be000404be0031
:1017400040c6b30080cf5000030032006540400027
:1017500080cf50000b003a00e00f5200e08f5a009b
:10176000e00f5b00e08f5b0006003d006000b8000a
:101770006011b80004045000858458000605590023
:1017800087855900e80f5700040032004000200010
:10179000f00f570038003a000100370030002000f9
:1017a000e00f5400e08f5c00e00f5d00e08f5d0013
:1017b00004003a00dc0890008d0120000100e000e8
:1017c000060032008e00e900888060008fba970022
:1017d000e5c07800f1ef9f007d01200080007800d7
:1017e0008100e900050033008b05d1000a85d30094
:1017f0008984d3000884d300f9ff3700089ebe0017
:101800000a96be00120037008d06e9008e00e9003e
:10181000848060000fb99700e2c1780082fd2f003c
:101820000f01410003f17e00800078008100e90093
:10183000050033008783d1000683d3008582d3005f
:101840000482d300f9ff3700049ebe000696be0056
:101850003c02be002c03be00e00f5200e08f5a0095
:10186000e00f5b00e08f5b008b0034000d00e000b8
:10187000e5ff3c00880037002c60900081c6b30073
:10188000814f50000b00320006003c000004e000d5
:1018900008003200e6c05000814f50004e003a0070
:1018a00004003700c1c6b300814f50004a003a001f
:1018b000210037000800e00004003a005c089000b6
:1018c0008d0120000000e000060032001100090038
:1018d0000e84d8000fb99700e2c07800f1ef9f00a6
:1018e0007d012000110009000e84d8000a00370095
:1018f000110009000e04d8008d06e9000e81b90020
:10190000020454008fb8970061417c0081fd2f00d4
:101910008f80400082f07e00000478000800e00024
:10192000020032000d00e000f1ff3c00cfc4de00f9
:10193000614db90025003700e00f5400e08f5c00d6
:1019400004003a005c0890008d0120000000e000d7
:10195000070032006171b9000800be00a500070051
:101960008fb99700e3417800f3ef9f007d012000dd
:101970006171b9000800be008e0007000b0037003f
:101980006171b9000800be007b0007008d06e90008
:1019900000f1b900020454000fba9700e4427c0041
:1019a00084fd2f000f02420005f27e000004be00fd
:1019b000e00f5000e08f5800020032000d00e00000
:1019c000efff3c004fcdde008a057800089ebe0088
:1019d0000a96be0030003700e00f5400e08f5c0034
:1019e000e00f5d00e08f5d0004003a005c089000ad
:1019f0008d0120000000e000090032006172b90092
:101a0000612bb9000800be000a01be0022010700d8
:101a10000fba970064427800f4ef9f007d01200028
:101a20006172b900612bb9000800be000a01be0056
:101a3000120107000d0037006172b900612bb90077
:101a40000800be000a01be00170107008d06e9006c
:101a500000f2b900040454008fba970065427c007c
:101a600085fd2f008f82420084f27e00009ebe0022
:101a70000296be003c04be002c05be00e00f5400e0
:101a8000e08f5c00e00f5d00e08f5d00020034003d
:101a90000d00e000e8ff3c00e80f570010003a009e
:101aa0000c1090000038a3000d003200f78f560094
:101ab00006003e0085fd2f008f824200e5c07e00bb
:101ac00000c3b30080cf5000050032008d06e9004e
:101ad00002c3b30081fd2f008f80400082f07e00a2
:101ae00078811600120e98006c00900083fd2f0084
:101af0008f8141008d8041000dfd07001c08900082
:101b0000dc089000810f500006003d00008050006e
:101b1000000e98000c1090000040a10000169800e4
:101b20000f0037000100e0000d003d008c10900018
:101b3000f4806000f08f500009003a007c099000aa
:101b4000fc009000810051000c0990008280500040
:101b5000008050004240a90001003400000e9800af
:101b60004f0778004f06be004f05be004f04be0071
:101b7000cf01b10000000600839f68000100e00073
:101b800002003d0060001000e08018000300e0004b
:101b900002003d0060011100e0811900050007000e
:101ba0004f00e00002003b0060001000e0801800e1
:101bb000000006006022b800060220000000d000ed
:101bc0008180d2000482d2008582d2000000a00071
:101bd0000202520083825a000300310002024200d6
:101be00083824a000000a1000603e900f3ff3a00e7
:101bf00000000600efff07000400be000000060022
:101c0000020ab900001bb9000200b80081004200be
:101c10008100430000000600889fbe008a9fbe002e
:101c200030044200b0844a0030054b0090854b00e0
:101c30006000b1000898be000a90be000440e100b8
:101c400005c8e10006d0e10007d8e100020031003c
:101c5000680040001008e8004f05be004f04be00b9
:101c600000000600889fbe008a9fbe003004be00b0
:101c70002005be000418540005985c0006185d009d
:101c800007985d00110020000440e10005c8e10054
:101c900006d0e10007d8e100010039008000eb0028
:101ca000108810004f05be004f04be000000060063
:101cb0001200fa00889fbe008a9fbe008c9fbe0063
:101cc000e0b79f00f1b79f0082bf9f0093bf9f00c6
:101cd0000605be000404be000000eb00d0b79f0064
:101ce000c0b79f00b0b79f00a0b79f0090b79f00fc
:101cf000000678005fb19700cfb0970082014100e5
:101d00003fb097000200e00004003d0037000700ec
:101d10007e805700c0ff0700030037003300070034
:101d20007e805700cfff0700dfb697000d00e00070
:101d30000c0035006fb29700ffb297000fbb970001
:101d40009fbb970010002000010020006011b80028
:101d500000027200818272000203730083837300a9
:101d60001b0007000c06e80001042000810f56004c
:101d7000e0ff3a000d00e00004003d000802be0054
:101d80000a03be007e805700a3ff07005fa89700ec
:101d90000000e00005003a001fb29700afb29700c4
:101da0003fb39700cfb39700090007006fb09700cb
:101db000ffb097000fb997009fb997004f06be007c
:101dc0004f05be004f04be000080fa000000060070
:101dd0000100070000000600a4b79f00b5b79f00f0
:101de000c6b79f00d7b79f00000006004f09de006e
:101df00082817100b3b79f004f01de0081804000f7
:101e000082807000a1b79f008fb097004f09de005d
:101e1000000040000200700090b79f007fa897006c
:101e20004f01de00818040008280700081b79f00fa
:101e30000d0007004f3ade00000040000400700073
:101e4000f0af9f00080007000402420085824a00ac
:101e500006034b0087834b00dfff07000802be002c
:101e60000a03be00000006002fb29700bfb2970021
:101e70004fb39700dfb3970000000600881f78007b
:101e800018002000881f780089ff07008f87e9006d
:101e90004f04780000000600801feb0084ff07005d
:101ea0008f87e90000000600889fbe008a9fbe0061
:101eb000e00f5000e08f5800e00f5900e08f59000c
:101ec0000c003d006044b8006055b80000005400ac
:101ed00081805c0002015d0083815d0018002000ac
:101ee0001500070008003d00180007000004eb0083
:101ef000050037000004eb000f00070002003d0062
:101f00001200070018002000dcff07000800e000b6
:101f1000060032006022b8006033b80000005200b2
:101f200081805a0002015b0083815b004f05be0087
:101f30004f04be0000000600e00f5200e08f5a0080
:101f4000e00f5b00e08f5b00000006006044b8001b
:101f50006055b8000402540085825c0006035d00f1
:101f600087835d0000000600889fbe008a9fbe0038
:101f70008c1f7800e00f5000e08f5800e00f5900f0
:101f8000e08f59000d003d006044b8006055b80076
:101f90000000540081805c0002015d0083815d00cf
:101fa0001c0020000820e10009a8e1000ab0e100bf
:101fb0000bb8e1000d003d00080037000006eb0003
:101fc000e00f5200e08f5a00e00f5b00e08f5b00f3
:101fd00006003d006044b8006055b800040254009b
:101fe00085825c0006035d0087835d00aaff070011
:101ff0000c00e000060032006022b8006033b80038
:102000000000520081805a0002015b0083815b0066
:102010004f0678004f05be004f04be0000000600ca
:020000040000fa
:1020200000000000000000000000000000000000b0
:1020300000000000000000000000000000000000a0
:102040000000000000000000000000000000000090
:102050000000000000000000000000000000000080
:10206000000000000000000080000000c000000030
:10207000c0000000c00000000000000000000000e0
:102080000000000000000000000000000000000050
:102090000000000000000000000000000000000040
:1020a0000000000000000000000000000000000030
:1020b0000000000000000000000000000000000020
:1020c0000000000000000000000000000000000010
:1020d0000000000000000000000000000000000000
:1020e00000000000000000000000000000000000f0
:1020f00000000000000000000000000000000000e0
:1021000000000000000000000000000000000000cf
:1021100000000000000000000000000000000000bf
:1021200000000000000000000000000000000000af
:10213000000000000000000000000000000000009f
:10214000000000000000000000000000000000008f
:10215000000000000000000000000000000000007f
:10216000000000000000000000000000000000006f
:10217000000000000000000000000000000000005f
:10218000000000000000000000000000000000004f
:10219000000000000000000000000000000000003f
:1021a000000000000000000000000000000000002f
:1021b000000000000000000000000000000000001f
:1021c000000000000000000000000000000000000f
:1021d00000000000000000000000000000000000ff
:1021e00000000000000000000000000000000000ef
:1021f00000000000000000000000000000000000df
:1022000000000000000000000000000000000000ce
:1022100000000000000000000000000000000000be
:1022200000000000000000000000000000000000ae
:10223000000000000000000000000000000000009e
:10224000000000000000000000000000000000008e
:10225000000000000000000000000000000000007e
:1022600000000000ff000000fe000000ff00000072
:10227000ff000000ff000000ff0000007c000000e5
:10228000f0000000f0000000f0000000f00000008e
:10229000f0000000f0000000f0000000f00000007e
:1022a000f0000000f0000000f0000000f00000006e
:1022b000f000000000000000f8000000f80000003e
:1022c000f00000000000000000000000f800000026
:1022d000f800000000000000000000000000000006
:1022e00000000000c0000000f000000078000000c6
:1022f00078000000780000007800000078000000fe
:10230000000000000000000000000000f8000000d5
:10231000f0000000000000000000000000000000cd
:10232000f8000000f8000000c000000000000000fd
:1023300000000000c0000000f8000000f8000000ed
:10234000000000000000000000000000f800000095
:10235000f800000000000000000000000000000085
:10236000f800000000000000000000000000000075
:10237000000000000000000000000000f00000006d
:10238000f8000000f8000000c0000000000000009d
:10239000000000000000000000000000000000003d
:1023a000f8000000f8000000c0000000000000007d
:1023b0000000000000000000f8000000f80000002d
:1023c000000000000000000000000000800000008d
:1023d000f0000000f000000078000000780000002d
:1023e00078000000780000000000000000000000fd
:1023f00000000000f8000000f8000000f8000000f5
:10240000c00000000000000000000000f800000014
:10241000f8000000000000000000000000000000c4
:1024200000000000000000000000000000000000ac
:10243000000000000000000000000000000000009c
:10244000000000000000000000000000000000008c
:10245000000000000000000000000000000000007c
:1024600000000000070000000b0000001f0000003b
:102470001f000000170000000b000000010000001a
:10248000000000000000000080000000c00000000c
:10249000e0000000f0000000f0000000f00000008c
:1024a000f0000000f0000000f0000000f00000006c
:1024b000e000000000000000ff000000010000003c
:1024c00007000000f8000000c0000000ff0000004e
:1024d000ff000000000000000000000000000000fd
:1024e00000000000ff00000070000000700000000d
:1024f000700000007000000070000000700000001c
:102500000000000000000000000000000f000000bc
:10251000ff000000f800000000000000ff000000c5
:102520007f00000003000000ff000000e00000004a
:1025300000000000ff0000003f000000030000005a
:10254000000000000000000000000000ff0000008c
:10255000ff0000007800000070000000780000001c
:10256000ff0000000000000000000000000000006c
:102570000000000000000000c0000000bf000000dc
:102580008f00000081000000ff000000f800000044
:10259000000000000000000000000000000000003b
:1025a0000f0000003f000000ff00000000000000de
:1025b000e0000000f80000000f0000000100000033
:1025c0000000000000000000f8000000ff00000014
:1025d000790000007800000070000000700000002a
:1025e000700000007000000000000000000000000b
:1025f00000000000ff000000ff000000ff000000de
:102600001f000000f0000000e0000000ff000000dc
:10261000ff000000000000000000000000000000bb
:1026200000000000000000000000000000000000aa
:10263000000000000000000000000000000000009a
:1026400000000000c0000000f8000000fe000000d4
:10265000ff000000ff000000f8000000d0000000b4
:10266000000000000000000000000000000000006a
:10267000000000000000000000000000c00000009a
:10268000b80000003c00000007000000030000004c
:1026900080000000f0000000f0000000f0000000ea
:1026a000f0000000f0000000f0000000f00000006a
:1026b000e000000000000000ff000000000000003b
:1026c00000000000030000003f000000ff000000c9
:1026d000ff000000000000000000000000000000fb
:1026e000000000001f00000078000000f000000063
:1026f000f0000000f0000000f0000000f00000001a
:1027000000000000000000000000000000000000c9
:1027100003000000ff000000ff0000007f00000039
:1027200000000000000000001f000000ff0000008b
:10273000fe0000000f00000000000000000000008c
:10274000000000000000000000000000ff0000008a
:10275000ff0000000000000000000000000000007a
:10276000ff0000000000000000000000000000006a
:1027700000000000f8000000ff000000070000005b
:102780000700000007000000070000003f000000f5
:10279000ff000000800000000000000000000000ba
:1027a000000000000000000001000000ff00000029
:1027b000ff0000003f0000000000000000000000db
:1027c0000000000000000000010000000f000000f9
:1027d0007c00000078000000f0000000f000000025
:1027e000f0000000f0000000000000000000000009
:1027f00000000000ff000000ff000000ff000000dc
:1028000000000000070000001f000000ff000000a3
:10281000ff000000000000000000000000000000b9
:1028200000000000000000000000000000000000a8
:102830000000000000000000000000000000000098
:10284000000000000e0000003f000000ff0000003c
:10285000ff000000ff0000007f0000001b000000e0
:102860000e0000000e0000000e0000000e00000030
:102870000e0000000e0000000f000000030000002a
:102880000000000000000000e00000007c000000ec
:102890000f00000000000000000000000000000029
:1028a0000000000000000000000000000000000028
:1028b0000000000000000000f0000000f000000038
:1028c000f0000000f0000000e0000000e000000068
:1028d0008000000000000000000000000000000078
:1028e00000000000f00000000000000000000000f8
:1028f000000000000000000080000000c000000098
:10290000f0000000f0000000f0000000f000000007
:10291000f0000000f00000000000000000000000d7
:102920000000000000000000f0000000f0000000c7
:10293000f0000000f0000000f0000000f0000000d7
:10294000e0000000c00000000000000000000000e7
:102950000000000000000000f00000000000000087
:102960000000000000000000000000000000000067
:102970000000000000000000000000000000000057
:10298000c0000000f0000000f000000000000000a7
:102990000000000000000000000000000000000037
:1029a000f0000000f0000000f00000000000000057
:1029b0000000000080000000f00000007000000037
:1029c0000000000000000000000000000000000007
:1029d00000000000000000000000000000000000f7
:1029e00000000000000000000000000000000000e7
:1029f00000000000000000000000000000000000d7
:102a000000000000000000000000000000000000c6
:102a100000000000000000000000000000000000b6
:102a20000000000000000000e0000000f4000000d2
:102a3000fe000000ff000000fe000000fc0000009f
:102a40008000000000000000000000000000000006
:102a50000100000001000000000000000000000074
:102a60000000000000000000000000000000000066
:102a70000000000000000000c0000000f0000000a6
:102a80002e0000001d0000000000000000000000fb
:102a90000000000000000000000000000000000036
:102aa0000000000000000000000000000000000026
:102ab0000000000000000000ff0000000000000017
:102ac00000000000000000000000000007000000ff
:102ad000ff000000000000000000000000000000f7
:102ae00000000000ff0000000000000000000000e7
:102af00000000000000000003f0000007f00000018
:102b0000e0000000e0000000e0000000e000000045
:102b1000e0000000e00000000000000000000000f5
:102b20000000000000000000ff000000ff000000a7
:102b3000c0000000c0000000c0000000c000000095
:102b4000ff000000ff000000000000000000000087
:102b50000000000000000000ff0000000000000076
:102b60000000000000000000000000000000000065
:102b7000000000000000000000000000fe00000057
:102b8000ff000000070000003f000000fe00000002
:102b9000e000000000000000000000000000000055
:102ba000000000000300000007000000f800000023
:102bb000fe0000003f0000000000000000000000d8
:102bc0000000000000000000000000000000000005
:102bd00000000000000000000000000000000000f5
:102be00000000000000000000000000000000000e5
:102bf00000000000000000000000000000000000d5
:102c000000000000000000000000000000000000c4
:102c100000000000000000000000000000000000b4
:102c200000000000000000000f0000007f00000016
:102c3000ff000000ff000000ff0000003f00000058
:102c40000f0000000f0000000f0000000f00000048
:102c50000f0000000f0000000f0000000f00000038
:102c60000f0000000f0000000f0000000f00000028
:102c70000b0000000f000000030000000100000036
:102c80000000000000000000000000000000000044
:102c90000000000000000000000000000000000034
:102ca0000000000000000000000000000000000024
:102cb0000000000000000000ff000000e000000035
:102cc000e0000000e0000000e0000000fc00000068
:102cd0003f000000000000000000000000000000b5
:102ce00000000000ff0000000000000000000000e5
:102cf0000000000000000000e0000000e000000014
:102d0000e0000000e0000000e0000000e100000042
:102d1000f1000000ff0000000000000000000000c3
:102d20000000000000000000ff000000ff000000a5
:102d30000300000003000000030000000300000087
:102d40000100000000000000000000000000000082
:102d50000000000000000000ff000000e000000094
:102d6000e0000000e0000000e000000000000000c3
:102d70000000000080000000f80000000f000000cc
:102d80000f0000000f0000000f0000000f00000007
:102d9000ff000000e0000000000000000000000054
:102da000000000000000000000000000ff00000024
:102db000ff00000000000000000000000000000014
:102dc0000000000000000000000000000000000003
:102dd00000000000000000000000000000000000f3
:102de00000000000000000000000000000000000e3
:102df00000000000000000000000000000000000d3
:102e000000000000000000000000000000000000c2
:102e100000000000000000000000000000000000b2
:102e200000000000000000000000000000000000a2
:102e30000000000000000000000000000000000092
:102e40000000000000000000000000000000000082
:102e50000000000000000000000000000000000072
:102e60000000000000000000000000000000000062
:102e70000000000000000000000000000000000052
:102e80000000000000000000000000000000000042
:102e90000000000000000000000000000000000032
:102ea0000000000000000000000000000000000022
:102eb0000000000000000000010000000100000010
:102ec00001000000010000000100000000000000ff
:102ed00000000000000000000000000000000000f2
:102ee00000000000010000000000000000000000e1
:102ef00000000000000000000000000001000000d1
:102f000001000000010000000100000001000000bd
:102f100001000000000000000000000000000000b0
:102f2000000000000000000001000000010000009f
:102f30000000000000000000000000000000000091
:102f40000000000000000000000000000000000081
:102f50000000000000000000000000000100000070
:102f6000010000000100000001000000000000005e
:102f7000000000000100000001000000000000004f
:102f80000000000000000000000000000000000041
:102f9000010000000100000000000000000000002f
:102fa0000000000000000000000000000100000020
:102fb0000000000000000000000000000000000011
:102fc0000000000000000000000000000000000001
:102fd00000000000000000000000000000000000f1
:102fe00000000000000000000000000000000000e1
:102ff00000000000000000000000000000000000d1
:1030000000000000000000000000000000000000c0
:1030100000000000000000000000000000000000b0
:0830200025640000000000001f
:020000040000fa
:103028000e00fa0010079800210798003207980050
:103038004307980054079800650798001e00780019
:10304800e30f500022003200e30f500007003c005d
:10305800e10f500012003200e10f500016003c0052
:103068000000e0000800320031003700e50f500092
:1030780023003200e50f50001b003500e60f50001a
:10308800250032002a003700018020003e00900011
:103098004700dd000080400040079800240037000a
:1030a80001a020003e0090004700dd0000804000a5
:1030b800400798001e003700012021003e009000c4
:1030c8004700dd00008040004007980018003700e6
:1030d80001e020003e0090004700dd000080400035
:1030e800400798001200370001c020003e00900001
:1030f8004700dd0000804000400798000c003700c2
:10310800010021003e0090004700dd0000804000e3
:103118004007980006003700014021003e0090005b
:103128004700dd00008040004007980000000000d4
:103138003e009000e30f50000a003a000000eb0048
:10314800300798001e007800e60f500002003a0091
:10315800a0ff2f0001003700100020001e0f4000c4
:10316800030037003e0090000000e8003007980098
:10317800de0090006e009000d60b07005e02900003
:103188001e009000ae0090003e019000ce0190001d
:10319800140c07005e009000e30b0700a7ff370040
:1031a8001200fa006007980071079800020f980053
:1031b8000e089000800b07000005200030079800db
:1031c80050002000000f780068004700ee009000d3
:1031d800811f780001812900811f780091f607007e
:1031e800e48757000000eb00100798000d01370036
:1031f800e80047001e009000008040001040780062
:103208000000fb006101b90000fd2f00f1ff2f0055
:103218000200400083804800920020000300200044
:10322800820f5000838f5800fb003e0000600100b1
:103238000900370020003700370037004e003700fc
:10324800650037007c00370093003700aa0037007c
:10325800c1003700d80037000000eb0020079800b5
:10326800100037001e007800c700dd002e00900017
:10327800808040003e009000008040008e08900052
:103288000080400002602100ae00900081004100f3
:1032980091407800014878002e0090000000e80076
:1032a800200798002e009000e70f5000edff340033
:1032b8001e0fe900d80037000000eb002007980037
:1032c800100037001e007800c700dd002e009000b7
:1032d800808040003e009000008040008e089000f2
:1032e8000080400082602100ae0090008100410013
:1032f80091407800014878002e0090000000e80016
:10330800200798002e009000e70f5000edff3400d2
:103318001e0fe900c00037000000eb0020079800ee
:10332800100037001e007800c700dd002e00900056
:10333800808040003e009000008040008e08900091
:103348000080400002612100ae0090008100410031
:1033580091407800014878002e0090000000e800b5
:10336800200798002e009000e70f5000edff340072
:103378001e0fe900a80037000000eb0020079800a6
:10338800100037001e007800c700dd002e009000f6
:10339800808040003e009000008040008e08900031
:1033a8000080400082612100ae0090008100410051
:1033b80091407800014878002e0090000000e80055
:1033c800200798002e009000e70f5000edff340012
:1033d8001e0fe900900037000000eb00200798005e
:1033e800100037001e007800c700dd002e00900096
:1033f800808040003e009000008040008e089000d1
:103408000080400002622100ae009000810041006f
:1034180091407800014878002e0090000000e800f4
:10342800200798002e009000e70f5000edff3400b1
:103438001e0fe900780037000000eb002007980015
:10344800100037001e007800c700dd002e00900035
:10345800808040003e009000008040008e08900070
:103468000080400082622100ae009000810041008f
:1034780091407800014878002e0090000000e80094
:10348800200798002e009000e70f5000edff340051
:103498001e0fe900600037000000eb0020079800cd
:1034a800100037001e007800c700dd002e009000d5
:1034b800808040003e009000008040008e08900010
:1034c8000080400002632100ae00900081004100ae
:1034d80091407800014878002e0090000000e80034
:1034e800200798002e009000e70f5000edff3400f1
:1034f8001e0fe900480037000000eb002007980085
:10350800100037001e007800c700dd002e00900074
:10351800808040003e009000008040008e089000af
:103528000080400082632100ae00900081004100cd
:1035380091407800014878002e0090000000e800d3
:10354800200798002e009000e70f5000edff340090
:103558001e0fe900300037000000eb00200798003c
:10356800100037001e007800c700dd002e00900014
:10357800808040003e009000008040008e0890004f
:103588000080400002642100ae00900081004100ec
:1035980091407800014878002e0090000000e80073
:1035a800200798002e009000e70f5000edff340030
:1035b8001e0fe900180037000000eb0020079800f4
:1035c800100037001e007800c700dd002e009000b4
:1035d800808040003e009000008040008e089000ef
:1035e8000080400082642100ae009000810041000c
:1035f80091407800014878002e0090000000e80013
:10360800200798002e009000e70f5000edff3400cf
:103618001e0fe900000000001e0090000000e800f6
:10362800100798001e009000e30f5000f0fe3400d1
:103638000e0890007003b0008040eb00014878004d
:103648000e0890008003b0008040eb00014878002d
:103658000e0890009003b0008040eb00014878000d
:103668000e089000a003b0008040eb0001487800ed
:103678000e089000b003b0008040eb0001487800cd
:103688000e089000c003b0008040eb0001487800ad
:103698000e089000d003b0008040eb00014878008d
:1036a8000e089000e003b0008040eb00014878006d
:1036b8000e089000700bb00001c8b30001487800f4
:1036c8000e089000800bb00081c9b3000148780053
:1036d8000e089000900bb00081c1b300014878003b
:1036e8000e089000a00bb0008040eb000148780065
:1036f8000e089000b00bb0008040eb000148780045
:103708000e089000c00bb00081c1b30001487800da
:103718000e089000d00bb00081c9b30001487800b2
:103728000e089000e00bb00001c8b3000148780013
:103738000e0890007013b000f1c1b3000148780082
:103748000e0890008013b000f1c9b300014878005a
:103758000e0890009013b00001c9b300014878002a
:103768000e089000a013b000c1c9b300014878004a
:103778000e089000b013b000c1c1b3000148780032
:103788000e089000c013b00001c1b30001487800d2
:103798000e089000d013b000f1c9b30001487800ba
:1037a8000e089000e013b000f1c9b300014878009a
:1037b8000e089000701bb000f1c1b30001487800fa
:1037c8000e089000801bb000f1c9b30001487800d2
:1037d8000e089000901bb00081c9b3000148780022
:1037e8000e089000a01bb000f1c9b3000148780092
:1037f8000e089000b01bb000f1c9b3000148780072
:103808000e089000c01bb000e1c9b3000148780061
:103818000e089000d01bb000b1c9b3000148780071
:103828000e089000e01bb00091c1b3000148780079
:103838000e0890007023b000f1c1b3000148780071
:103848000e0890008023b000f1c3b300014878004f
:103858000e0890009023b000b1c3b300014878006f
:103868000e089000a023b000b1c3b300014878004f
:103878000e089000b023b000b1c3b300014878002f
:103888000e089000c023b000b1c3b300014878000f
:103898000e089000d023b000f1c3b30001487800af
:1038a8000e089000e023b000f1c1b3000148780091
:1038b8000e089000702bb000f1c1b30001487800e9
:1038c8000e089000802bb000f1c3b30001487800c7
:1038d8000e089000902bb00001c3b3000148780097
:1038e8000e089000a02bb00001c3b3000148780077
:1038f8000e089000b02bb00001c3b3000148780057
:103908000e089000c02bb00001c3b3000148780036
:103918000e089000d02bb000f1c3b3000148780026
:103928000e089000e02bb000f1c1b3000148780008
:103938000e0890007033b000f1c1b3000148780060
:103948000e0890008033b000f1c3b300014878003e
:103958000e0890009033b00001c2b300014878000f
:103968000e089000a033b000e1c3b300014878000e
:103978000e089000b033b000f1c1b30001487800e0
:103988000e089000c033b00011c0b30001487800a1
:103998000e089000d033b000f1c3b300014878009e
:1039a8000e089000e033b000e1c3b300014878008e
:1039b8000e089000d008b00001c8b3000148780094
:1039c8000e089000e008b00001c8b3000148780074
:1039d8000e089000f008b0008040eb000148780025
:1039e8000e0890000009b0008040eb000148780004
:1039f8000e0890001009b0008040eb0001487800e4
:103a08000e0890002009b0008040eb0001487800c3
:103a18000e0890003009b0008040eb0001487800a3
:103a28000e0890004009b00001ccb30001487800ae
:103a38000e0890005009b00001ccb300014878008e
:103a48000e089000d010b000f1c9b300014878000a
:103a58000e089000e010b000f1c9b30001487800ea
:103a68000e089000f010b00081c9b300014878003a
:103a78000e0890000011b00081c9b3000148780019
:103a88000e0890001011b000e1c9b3000148780099
:103a98000e0890002011b000e1c9b3000148780079
:103aa8000e0890003011b00081c9b30001487800b9
:103ab8000e0890004011b000f1c9b3000148780029
:103ac8000e0890005011b000f1c9b3000148780009
:103ad8000e089000d018b00011c6b3000148780055
:103ae8000e089000e018b00011c6b3000148780035
:103af8000e089000f018b00031c7b30001487800f4
:103b08000e0890000019b000f1c7b3000148780012
:103b18000e0890001019b000d1c6b3000148780013
:103b28000e0890002019b00011c6b30001487800b3
:103b38000e0890003019b00011c6b3000148780093
:103b48000e0890004019b00011c6b3000148780073
:103b58000e0890005019b00011c6b3000148780053
:103b68000e089000d020b00001c7b30001487800cb
:103b78000e089000e020b00001c7b30001487800ab
:103b88000e089000f020b00001c5b300014878008d
:103b98000e0890000021b00081cdb30001487800e4
:103ba8000e0890001021b00081cfb30001487800c2
:103bb8000e0890002021b000c1cfb3000148780062
:103bc8000e0890003021b000c1c8b3000148780049
:103bd8000e0890004021b000e1c8b3000148780009
:103be8000e0890005021b00061c0b3000148780071
:103bf8000e089000d028b00001cfb300014878002b
:103c08000e089000e028b00081cfb300014878008a
:103c18000e089000f028b00001c1b30001487800f8
:103c28000e0890000029b0008040eb0001487800a1
:103c38000e0890001029b00081c7b3000148780031
:103c48000e0890002029b00091c1b3000148780007
:103c58000e0890003029b00091c1b30001487800e7
:103c68000e0890004029b000b1cfb3000148780099
:103c78000e0890005029b00031cfb30001487800f9
:103c88000e089000f029b00011c3b3000148780075
:103c98000e089000002ab00011c3b3000148780054
:103ca8000e089000102ab00001c3b3000148780044
:103cb8000e089000202ab00001cfb3000148780018
:103cc8000e089000302ab00001ceb30001487800f9
:103cd8000e089000402ab00001ceb30001487800d9
:103ce8000e089000c031b00011c0b3000148780040
:103cf8000e089000d031b00011c0b3000148780020
:103d08000e089000e031b00031c0b30001487800df
:103d18000e089000f031b00031c0b30001487800bf
:103d28000e0890000032b00031c0b300014878009e
:103d38000e0890001032b00031c0b300014878007e
:103d48000e0890002032b00031c0b300014878005e
:103d58000e0890003032b00011c0b300014878005e
:103d68000e0890004032b00011c0b300014878003e
:103d78000e089000c011b000c1c7b3000148780018
:103d88000e089000d011b000e1c7b30001487800d8
:103d98000e089000e011b00061c6b3000148780039
:103da8000e089000f011b00061c6b3000148780019
:103db8000e0890000012b000c1c7b3000148780097
:103dc8000e0890001012b00001c7b3000148780037
:103dd8000e0890002012b000c1c7b3000148780057
:103de8000e0890003012b000e1c6b3000148780018
:103df8000e0890004012b00061c6b3000148780078
:103e08000e089000c019b000e1c7b300014878005f
:103e18000e089000d019b000e1c7b300014878003f
:103e28000e089000e019b00001c6b3000148780000
:103e38000e089000f019b00001c6b30001487800e0
:103e48000e089000001ab00081c7b300014878003e
:103e58000e089000101ab00081c7b300014878001e
:103e68000e089000201ab00001c6b300014878007f
:103e78000e089000301ab000f1c7b300014878006e
:103e88000e089000401ab000f1c7b300014878004e
:103e98000e089000c021b00061c0b300014878004e
:103ea8000e089000d021b00061c0b300014878002e
:103eb8000e089000e021b00061c0b300014878000e
:103ec8000e089000f021b000c1c8b3000148780086
:103ed8000e0890000022b000c1c8b3000148780065
:103ee8000e0890001022b00081cdb3000148780080
:103ef8000e0890002022b00081cdb3000148780060
:103f08000e0890003022b00001c7b30001487800c5
:103f18000e0890004022b00001c7b30001487800a5
:103f28000e089000c029b00061ceb30001487800a7
:103f38000e089000d029b00061ceb3000148780087
:103f48000e089000e029b00061cfb3000148780066
:103f58000e089000f029b00031c3b3000148780082
:103f68000e089000002ab00031c3b3000148780061
:103f78000e089000102ab00011c3b3000148780061
:103f88000e089000202ab00011cfb3000148780035
:103f98000e089000302ab00001ceb3000148780026
:103fa8000e089000402ab00001ceb3000148780006
:103fb8000e089000c031b00011c0b300014878006d
:103fc8000e089000d031b00011c0b300014878004d
:103fd8000e089000e031b00031c0b300014878000d
:103fe8000e089000f031b00031c0b30001487800ed
:103ff8000e0890000032b00031c0b30001487800cc
:104008000e0890001032b00031c0b30001487800ab
:104018000e0890002032b00031c0b300014878008b
:104028000e0890003032b00011c0b300014878008b
:104038000e0890004032b00011c0b300014878006b
:10404800fe0090000e089000220807007e009000f5
:10405800350807000080fa00000006000200fa0098
:10406800a2f2070071002000010178001100090088
:104078000200d8008000fd00000f78001e007800c4
:10408800e30f500016003200e30f500007003c0019
:10409800e10f50000e003200e10f50000e003c000e
:1040a8000000e0000800320015003700e50f50005e
:1040b8000f003200e50f50000b003500e60f5000ee
:1040c8000d0032000e003700008020000d00370080
:1040d80000a020000b00370000c0200009003700b6
:1040e80000e020000700370000002100050037002d
:1040f80000202100030037000040210001003700a4
:10410800004021000080fa00000006002a08fa009a
:10411800889fbe008a9fbe00f40807002907070091
:1041280051070700200220000e004000a2070700e8
:104138002042200000004700b0070700208220002e
:10414800000047008000eb00010878002082200072
:104158000000470021002000110098002082200064
:10416800000047008000eb0021009800bbff07001b
:104178002182200081004700b00098000000eb0079
:10418800000f780040012000100798000000eb00a5
:10419800700798000000eb00000f98000000eb008b
:1041a800100f98000000200001f82300200f98004d
:1041b800310f980000712200100888008460a9005f
:1041c80021058000f0ff28000080600000e0a000ca
:1041d800200588009460a8000003200020088800bb
:1041e800ac01370005e1a8000000000020048000b1
:1041f800680060000000e000fcff32008460a90055
:1042080010168000610060000000e00012003a0013
:104218002042200080004700208220000000470044
:104228008042eb00010278005001be004000be0051
:104238001d0807000000e00007003200208220006f
:1042480000004700100090008000e8002082200055
:1042580000004700110098001016800062006000fe
:104268000000e00012003a002042200080004700d1
:10427800208220000000470015c0b300010278002a
:104288005001be004000be00070807000000e00023
:104298000700320020822000000047001000900034
:1042a8008000e900208220000000470011009800eb
:1042b80010168000640060000000e00012003a0060
:1042c8002042200080004700208220000000470094
:1042d80025c0b300010278005001be004000be00b6
:1042e800f10707000000e0000700320020822000ec
:1042f8000000470010007800e800400020822000fd
:10430800000047000108780010168000680060006f
:104318000000e00030003a00204220008000470002
:10432800208220000000470035c0b3000102780059
:104338005001be004000be00db0707000000e0009f
:104348002500320020822000000047002000900055
:10435800e30f500009003a002082200000004700c7
:104368003000900001e82f0080804000208220006b
:104378000000470031009800080037002082200024
:1043880000004700300090000108200080804000b5
:104398002082200000004700310098002082200081
:1043a80000004700a0009000208220000000470085
:1043b80020009000e30f500002003a00d0ff2f00c9
:1043c800010037001000200080804000208220007b
:1043d80000004700210098009e0078001e00900011
:1043e80000017800110009008200d8008000fd005b
:1043f8000000e00016013a0020422000800047003b
:10440800208220000000470025c0b3000102780088
:104418005001be004000be00a30707000000e000f6
:1044280008003200208220000000470010007800b9
:10443800e8004000208220000000470001087800c2
:10444800030137000000eb00300798003100370007
:104458000000eb0020079800280037003e0090007d
:10446800c500dd002e00900000804000700f98000d
:104478002082200000004700900090003e0090003d
:1044880000804000c700dd002082200000004700b7
:10449800100178002e0090000000410000804000cc
:1044a800001798002082200000004700b00090000c
:1044b8007e0890000080400010407800e14f4000e6
:1044c8000b003a002082200000004700b000900056
:1044d8007e08900000804000904078002042200034
:1044e800000147000e1090000000410001487800cc
:1044f8002e0090000000e800200798002e00900091
:10450800ff0f5000d5ff34003e0090000000e80087
:10451800300798003e009000e30f5000ccff3400b5
:104528000000eb00400f98000000eb00500f9800cf
:104538000000eb00600f98000000eb0040079800b7
:104548003f0037000000eb00600798002042200081
:10455800800047004e009000008040001040780026
:10456800e14f400015003a00100020005007980065
:104578000f0037005e009000c700dd004e0090007d
:1045880000804000214220008100470061407800ff
:10459800e14f400003003a006e0090000000e80080
:1045a800600798005e0090000000e800500798003f
:1045b8005e009000e60f5000eeff34006e009000a1
:1045c800e60f50001b003a005e0890000000e00073
:1045d80004003a00ce009000610f980010002000ff
:1045e800500f98004e0890000000e800400f980017
:1045f80010002000500798000b0037005e00900064
:10460800c700dd004e0090000080400021422000dd
:10461800810047000041eb00827078005e00900046
:104628000000e800500798005e009000e60f500078
:10463800f2ff34004e0090000000e80040079800a8
:10464800ce00900070072000808f5000bdff34001e
:104658006e0890000000e900400798001c00370031
:104668006000200050079800130037005e0090009b
:10467800c700dd004e009000808040004e0890008a
:1046880000804000de0090004709dd00ce00900069
:1046980081004100224220000201470062c17800e7
:1046a8002142200081004700827078005e0090005f
:1046b8000000e900500798005e0090000000e0004c
:1046c800eaff3c004e0090000000e9004007980017
:1046d8004e0090000000e000e1ff3d00ce08900091
:1046e80000022000808f50000f003a000e08900052
:1046f800cf80de0034f007000004be000200200076
:10470800032a24002e089000be08900084f00700b9
:104718000001be000800be00adef070009f0070069
:10472800000f9800150037000e089000cf80de00bb
:1047380025f007000004be004e089000cf80de0080
:1047480021f007000005be0002002000031224002b
:104758002e089000be08900071f007000001be000e
:104768000a00be009aef07000001be000800be0064
:1047780097ef0700f3ef0700000f98007e00900006
:104788000000e80070079800fe009000500020002c
:1047980000017800110009008200d8008000fd00a7
:1047a8000000e0000d003a001e009000e10f5000ec
:1047b8000a0034001e0090000000e900100798006d
:1047c8000200200003f823002e089000be08900085
:1047d8007fef0700200f9800310f980020822000fb
:1047e800000047008000eb000108780020822000cc
:1047f80000004700310020001100980020822000ae
:10480800000047008000eb002100980013fe07001d
:104818002182200081004700b0009800204220003b
:1048280080004700208220000000470025c0b30018
:10483800010278005001be004000be009a06070041
:104848000000e00002003a0010002000100f98005d
:104858001e0fe800210220008e8040002042200028
:10486800000047001b060700210220008e80400040
:104878002082200000004700010278005001be009d
:104888004000be0057060700200220000e0040002e
:10489800250607001e0890000000e00051fe3200c7
:1048a8002042200080004700200220000e00400027
:1048b80001017800800078000e08900038fa07009f
:1048c80010168000610060000000e0002c003a0033
:1048d80020822000000047008000eb0001087800db
:1048e80020822000000047003100200011009800bd
:1048f80020822000000047008000eb002100980083
:10490800d6fd07002182200081004700b0009800f2
:104918000000eb00700798000000eb00000f980003
:10492800200220000e004000a305070020422000be
:1049380000004700b1050700210220008e804000da
:104948002042200000004700e20507002102200065
:104958008e8040002082200000004700010278007d
:104968005001be004000be001e06070020022000c5
:104978000e004000ec0507000000eb00100f980047
:0849880000000000c3ff37002e
:020000040000fa
:1049900000080000500e00000200000000000000af
:1049a0000000000000000000000000000000000007
:1049b00000000000000000000000000000000000f7
:1049c000000000000000ff00ffffff00ffffff00ee
:1049d000ffffff00ffffff00ffffff00ffffff00e3
:1049e000ffffff00ffffff00ffffff00ffffff00d3
:1049f000ff000000000000000000000000000000b8
:104a000000000000000000000000000000000000a6
:104a10000000000000000000000000000000000096
:104a20000000000000000000000000000000000086
:104a30000000000000000000000000000000000076
:104a40000000000000000000000000000000000066
:104a5000000000000000000000000000ffffff0059
:104a6000ffffff00ffff000000000000000000004b
:104a70000000000000000000000000000000000036
:104a8000000000000000ff00ffffff00ffffff002d
:104a9000ff00000000000000000000000000000017
:104aa0000000000000000000000000000000000006
:104ab00000ffff00ffffff00ffffff0000000000fe
:104ac00000000000000000000000000000000000e6
:104ad000000000000000000000000000ffffff00d9
:104ae000ffffff00ffff00000000000000000000cb
:104af00000000000000000000000000000000000b6
:104b000000000000000000000000000000000000a5
:104b10000000000000000000000000000000000095
:104b20000000000000000000000000000000000085
:104b30000000000000000000000000000000000075
:104b4000000000000000ff00ffffff00ffffff006c
:104b5000ffffff00ffffff00ffffff00ffffff0061
:104b6000ffffff00ffffff00ffffff00ffffff0051
:104b7000ff00000000000000000000000000000036
:104b80000000000000000000000000000000000025
:104b90000000000000000000000000000000000015
:104ba000000000000000ff00ffffff00ffffff000c
:104bb000ff000000000000000000000000000000f6
:104bc00000000000000000000000000000000000e5
:104bd00000ffff00ffffff00ffffff0000000000dd
:104be00000000000000000000000000000000000c5
:104bf000000000000000000000000000ffffff00b8
:104c0000ffffff00ffff00000000000000000000a9
:104c10000000000000000000000000000000000094
:104c2000000000000000ff00ffffff00ffffff008b
:104c3000ff00000000000000000000000000000075
:104c4000000000000000ff00ffffff00ffffff006b
:104c5000ff00000000000000000000000000000055
:104c60000000000000000000000000000000000044
:104c700000ffff00ffffff00ffffff00ffffff003f
:104c8000ffffff00ffffff00ffffff00ffffff0030
:104c9000ff00000000000000000000000000000015
:104ca0000000000000000000000000000000000004
:104cb00000000000000000000000000000000000f4
:104cc00000000000000000000000000000000000e4
:104cd00000000000000000000000000000000000d4
:104ce00000000000000000000000000000000000c4
:104cf000000000000000000000000000ffffff00b7
:104d0000ffffff00ffffff00ffffff00ffffff00af
:104d1000ff00000000000000000000000000000094
:104d2000000000000000ff00ffffff00ffffff008a
:104d3000ff00000000000000000000000000000074
:104d40000000000000000000000000000000000063
:104d500000ffff00ffffff00ffffff00000000005b
:104d60000000000000000000000000000000000043
:104d70000000000000000000000000000000000033
:104d80000000000000000000000000000000000023
:104d90000000000000000000000000000000000013
:104da0000000000000000000000000000000000003
:104db00000000000000000000000000000000000f3
:104dc000000000000000ff00ffffff00ffffff00ea
:104dd000ffffff00ffffff00ffffff00ffffff00df
:104de000ffffff00ffff00000000000000000000c8
:104df00000000000000000000000000000000000b3
:104e0000000000000000ff00ffffff00ffffff00a9
:104e1000ff00000000000000000000000000000093
:104e20000000000000000000000000000000000082
:104e30000000000000000000000000000000000072
:104e40000000000000000000000000000000000062
:104e500000ffff00ffffff00ffffff00000000005a
:104e60000000000000000000000000000000000042
:104e7000000000000000000000000000ffffff0035
:104e8000ffffff00ffff0000000000000000000027
:104e9000000000000000000000000000ffffff0015
:104ea000ffffff00ffffff00ffffff00ffffff000e
:104eb000ff000000000000000000000000000000f3
:104ec00000000000000000000000000000000000e2
:104ed00000000000000000000000000000000000d2
:104ee00000000000000000000000000000000000c2
:104ef00000000000000000000000000000000000b2
:104f0000000000000000ff00ffffff00ffffff00a8
:104f1000ff0000000000000000000000ffffff0095
:104f2000ffffff00ffffff00ffffff00ffffff008d
:104f3000ffffff00ffffff00ffffff00000000007a
:104f40000000000000000000000000000000000061
:104f50000000000000000000000000000000000051
:104f60000000000000000000000000000000000041
:104f70000000000000000000000000000000000031
:104f80000000000000000000000000000000000021
:104f90000000000000000000000000000000000011
:104fa000000000000000ff00ffffff00ffffff0008
:104fb000ff000000000000000000000000000000f2
:104fc00000000000000000000000000000000000e1
:104fd00000ffff00ffffff00ffffff0000000000d9
:104fe00000000000000000000000000000000000c1
:104ff000000000000000000000000000ffffff00b4
:10500000ffffff00ffffff00ffffff00ffffff00ac
:10501000ff00000000000000000000000000000091
:105020000000000000000000000000000000000080
:105030000000000000000000000000000000000070
:105040000000000000000000000000000000000060
:105050000000000000000000000000000000000050
:105060000000000000000000000000000000000040
:1050700000ffff00ffffff00ffffff00ffffff003b
:10508000ffffff00ffffff00ffffff00ffffff002c
:10509000ff0000000000000000000000ffffff0014
:1050a000ffffff00ffff0000000000000000000005
:1050b00000000000000000000000000000000000f0
:1050c00000000000000000000000000000000000e0
:1050d00000000000000000000000000000000000d0
:1050e00000000000000000000000000000000000c0
:1050f00000ffff00ffffff00ffffff00ffffff00bb
:10510000ffffff00ffff00000000000000000000a4
:10511000000000000000000000000000000000008f
:10512000000000000000ff00ffffff00ffffff0086
:10513000ff00000000000000000000000000000070
:10514000000000000000000000000000000000005f
:1051500000ffff00ffffff00ffffff000000000057
:10516000000000000000000000000000000000003f
:10517000000000000000000000000000000000002f
:10518000000000000000000000000000000000001f
:10519000000000000000000000000000ffffff0012
:1051a000ffffff00ffffff00ffffff00ffffff000b
:1051b000ff000000000000000000000000000000f0
:1051c000000000000000ff00ffffff00ffffff00e6
:1051d000ffffff00ffffff00ffffff0000000000d8
:1051e00000000000000000000000000000000000bf
:1051f00000000000000000000000000000000000af
:10520000000000000000000000000000000000009e
:10521000000000000000000000000000000000008e
:10522000000000000000000000000000000000007e
:10523000000000000000000000000000000000006e
:10524000000000000000ff00ffffff00ffffff0065
:10525000ffffff00ffffff00ffffff000000000057
:10526000000000000000000000000000000000003e
:1052700000ffff00ffffff00ffffff00ffffff0039
:10528000ffffff00ffff0000000000000000000023
:10529000000000000000000000000000000000000e
:1052a00000000000000000000000000000000000fe
:1052b00000000000000000000000000000000000ee
:1052c00000000000000000000000000000000000de
:1052d00000000000000000000000000000000000ce
:1052e00000000000000000000000000000000000be
:1052f00000ffff00ffffff00ffffff00ffffff00b9
:10530000ffffff00ffff00000000000000000000a2
:10531000000000000000000000000000ffffff0090
:10532000ffffff00ffffff00ffffff00ffffff0089
:10533000ff0000000000000000000000000000006e
:10534000000000000000000000000000000000005d
:10535000000000000000000000000000000000004d
:10536000000000000000000000000000000000003d
:10537000000000000000000000000000000000002d
:10538000000000000000000000000000000000001d
:10539000000000000000000000000000ffffff0010
:1053a000ffffff00ffffff00ffffff00ffffff0009
:1053b000ff000000000000000000000000000000ee
:1053c000000000000000ff00ffffff00ffffff00e4
:1053d000ffffff00ffffff00ffffff0000000000d6
:1053e00000000000000000000000000000000000bd
:1053f00000000000000000000000000000000000ad
:10540000000000000000000000000000000000009c
:10541000000000000000000000000000000000008c
:10542000000000000000000000000000000000007c
:10543000000000000000000000000000000000006c
:10544000000000000000000000000000000000005c
:10545000000000000000000000000000000000004c
:10546000000000000000000000000000000000003c
:1054700000ffff00ffffff00ffffff00ffffff0037
:10548000ffffff00ffffff00ffffff00ffffff0028
:10549000ff0000000000000000000000000000000d
:1054a000000000000000ff00ffffff00ffffff0003
:1054b000ff000000000000000000000000000000ed
:1054c00000000000000000000000000000000000dc
:1054d00000000000000000000000000000000000cc
:1054e00000000000000000000000000000000000bc
:1054f000000000000000000000000000ffffff00af
:10550000ffffff00ffff00000000000000000000a0
:10551000000000000000000000000000ffffff008e
:10552000ffffff00ffffff00ffffff00ffffff0087
:10553000ff0000000000000000000000000000006c
:10554000000000000000000000000000000000005b
:1055500000ffff00ffffff00ffffff000000000053
:10556000000000000000000000000000000000003b
:10557000000000000000000000000000000000002b
:10558000000000000000000000000000000000001b
:10559000000000000000000000000000000000000b
:1055a000000000000000ff00ffffff00ffffff0002
:1055b000ff000000000000000000000000000000ec
:1055c000000000000000ff00ffffff00ffffff00e2
:1055d000ffffff00ffffff00ffffff00ffffff00d7
:1055e000ffffff00ffff00000000000000000000c0
:1055f00000000000000000000000000000000000ab
:10560000000000000000000000000000000000009a
:10561000000000000000000000000000000000008a
:10562000000000000000000000000000000000007a
:10563000000000000000000000000000000000006a
:10564000000000000000000000000000000000005a
:1056500000ffff00ffffff00ffffff000000000052
:10566000000000000000000000000000000000003a
