:020000040000fa
:080000000002040000000000f2
:020000040000fa
:04000800e002000012
:020000040000fa
:04000c00e00200000e
:020000040000fa
:04001000e00200000a
:020000040000fa
:04001400e002000006
:020000040000fa
:04001800e002000002
:020000040000fa
:04001c00e0020000fe
:020000040000fa
:04002000e0020000fa
:020000040000fa
:04002400e0020000f6
:020000040000fa
:04002800e0020000f2
:020000040000fa
:04002c00e0020000ee
:020000040000fa
:04003000e0020000ea
:020000040000fa
:04003400c8020000fe
:020000040000fa
:04003800e0020000e2
:020000040000fa
:04003c00e0020000de
:020000040000fa
:04004000e0020000da
:020000040000fa
:04004400e0020000d6
:020000040000fa
:04004800e0020000d2
:020000040000fa
:04004c00e0020000ce
:020000040000fa
:04005000e0020000ca
:020000040000fa
:04005400e0020000c6
:020000040000fa
:04005800e0020000c2
:020000040000fa
:04005c00e0020000be
:020000040000fa
:04006000e0020000ba
:020000040000fa
:04006400e0020000b6
:020000040000fa
:04006800e0020000b2
:020000040000fa
:04006c00e0020000ae
:020000040000fa
:04007000e0020000aa
:020000040000fa
:04007400e0020000a6
:020000040000fa
:04007800e0020000a2
:020000040000fa
:04007c00e00200009e
:020000040000fa
:04008000e00200009a
:020000040000fa
:04008400e002000096
:020000040000fa
:04008800e002000092
:020000040000fa
:04008c00e00200008e
:020000040000fa
:04009000e00200008a
:020000040000fa
:04009400e002000086
:020000040000fa
:04009800e002000082
:020000040000fa
:04009c00e00200007e
:020000040000fa
:0400a000e00200007a
:020000040000fa
:0400a400e002000076
:020000040000fa
:0400a800e002000072
:020000040000fa
:0400ac00e00200006e
:020000040000fa
:0400b000e00200006a
:020000040000fa
:0400b400e002000066
:020000040000fa
:0400b800e002000062
:020000040000fa
:0400bc00e00200005e
:020000040000fa
:0400c000e00200005a
:020000040000fa
:0400c400e002000056
:020000040000fa
:0400c800e002000052
:020000040000fa
:0400cc00e00200004e
:020000040000fa
:0400d000e00200004a
:020000040000fa
:0400d400e002000046
:020000040000fa
:0400d800e002000042
:020000040000fa
:0400dc00e00200003e
:020000040000fa
:0400e000e00200003a
:020000040000fa
:0400e400e002000036
:020000040000fa
:0400e800e002000032
:020000040000fa
:0400ec00e00200002e
:020000040000fa
:0400f000e00200002a
:020000040000fa
:0400f400e002000026
:020000040000fa
:0400f800e002000022
:020000040000fa
:0400fc00e00200001e
:020000040000fa
:04010000e002000019
:020000040000fa
:04010400e002000015
:020000040000fa
:04010800e002000011
:020000040000fa
:04010c00e00200000d
:020000040000fa
:04011000e002000009
:020000040000fa
:04011400e002000005
:020000040000fa
:04011800e002000001
:020000040000fa
:04011c00e0020000fd
:020000040000fa
:04012000e0020000f9
:020000040000fa
:04012400e0020000f5
:020000040000fa
:04012800e0020000f1
:020000040000fa
:04012c00e0020000ed
:020000040000fa
:04013000e0020000e9
:020000040000fa
:04013400e0020000e5
:020000040000fa
:04013800e0020000e1
:020000040000fa
:04013c00e0020000dd
:020000040000fa
:04014000e0020000d9
:020000040000fa
:04014400e0020000d5
:020000040000fa
:04014800e0020000d1
:020000040000fa
:04020800e002000010
:020000040000fa
:04020c00e00200000c
:020000040000fa
:04021000e002000008
:020000040000fa
:04021400e002000004
:020000040000fa
:04021800e002000000
:020000040000fa
:04021c00e0020000fc
:020000040000fa
:04022000e0020000f8
:020000040000fa
:04022400e0020000f4
:020000040000fa
:04022800e0020000f0
:020000040000fa
:04022c00e0020000ec
:020000040000fa
:04023000e0020000e8
:020000040000fa
:04023400c8020000fc
:020000040000fa
:04023800e0020000e0
:020000040000fa
:04023c00e0020000dc
:020000040000fa
:04024000e0020000d8
:020000040000fa
:04024400e0020000d4
:020000040000fa
:04024800e0020000d0
:020000040000fa
:04024c00e0020000cc
:020000040000fa
:04025000e0020000c8
:020000040000fa
:04025400e0020000c4
:020000040000fa
:04025800e0020000c0
:020000040000fa
:04025c00e0020000bc
:020000040000fa
:04026000e0020000b8
:020000040000fa
:04026400e0020000b4
:020000040000fa
:04026800e0020000b0
:020000040000fa
:04026c00e0020000ac
:020000040000fa
:04027000e0020000a8
:020000040000fa
:04027400e0020000a4
:020000040000fa
:04027800e0020000a0
:020000040000fa
:04027c00e00200009c
:020000040000fa
:04028000e002000098
:020000040000fa
:04028400e002000094
:020000040000fa
:04028800e002000090
:020000040000fa
:04028c00e00200008c
:020000040000fa
:04029000e002000088
:020000040000fa
:04029400e002000084
:020000040000fa
:04029800e002000080
:020000040000fa
:04029c00e00200007c
:020000040000fa
:0402a000e002000078
:020000040000fa
:0402a400e002000074
:020000040000fa
:0402a800e002000070
:020000040000fa
:0402ac00e00200006c
:020000040000fa
:0402b000e002000068
:020000040000fa
:0402b400e002000064
:020000040000fa
:0402b800e002000060
:020000040000fa
:0402bc00e00200005c
:020000040000fa
:0402c000e002000058
:020000040000fa
:0402c400e002000054
:020000040000fa
:0402c800e002000050
:020000040000fa
:0402cc00e00200004c
:020000040000fa
:0402d000e002000048
:020000040000fa
:0402d400e002000044
:020000040000fa
:0402d800e002000040
:020000040000fa
:0402dc00e00200003c
:020000040000fa
:0402e000e002000038
:020000040000fa
:0402e400e002000034
:020000040000fa
:0402e800e002000030
:020000040000fa
:0402ec00e00200002c
:020000040000fa
:0402f000e002000028
:020000040000fa
:0402f400e002000024
:020000040000fa
:0402f800e002000020
:020000040000fa
:0402fc00e00200001c
:020000040000fa
:04030000e002000017
:020000040000fa
:04030400e002000013
:020000040000fa
:04030800e00200000f
:020000040000fa
:04030c00e00200000b
:020000040000fa
:04031000e002000007
:020000040000fa
:04031400e002000003
:020000040000fa
:04031800e0020000ff
:020000040000fa
:04031c00e0020000fb
:020000040000fa
:04032000e0020000f7
:020000040000fa
:04032400e0020000f3
:020000040000fa
:04032800e0020000ef
:020000040000fa
:04032c00e0020000eb
:020000040000fa
:04033000e0020000e7
:020000040000fa
:04033400e0020000e3
:020000040000fa
:04033800e0020000df
:020000040000fa
:04033c00e0020000db
:020000040000fa
:04034000e0020000d7
:020000040000fa
:04034400e0020000d3
:020000040000fa
:04034800e0020000cf
:020000040000fa
:10040000ef6821000e7f22000e018800000000002e
:10041000000020000000e000020032000001200087
:100420002002880014000700670007000000e000b9
:1004300003003a0000b8200001002000020037004d
:100440000000200001002000810f70000100320038
:1004500014000700000020000000e000020032004d
:10046000000002000000000006160200000000006c
:100470000040da000000fe004440a9000080200097
:100480000000e0000300320000002000a00188000e
:100490004440a800000006008a1f78008b1f7800e7
:1004a0000000060091018800800478000000eb0045
:1004b0001a003700e284440032a0b4009905ba0063
:1004c000e284440032a0b4009906ba00e2844400f9
:1004d00032a0b4000006eb00476fde00fd07b2005b
:1004e000636ce10003003a00ebff07000000eb0043
:1004f0000a003700606ce10004003a00005deb0088
:100500008b05e900fdff3e00040037006168e10053
:10051000010032000086eb000b00070019c7ba008b
:100520001905ba000e04e00003003a000a00e000da
:10053000e0ff3a0000000600fe07b2009e018800be
:100540008a047800f5ff3700395dba008b05e900b1
:100550000c003200295dba008b05e900080032006a
:100560000c00e00003003a00e284440032a0b40032
:10057000f5ff370019ddba008b05e900faff3a00f4
:100580008904e800e184440032a0b40000000600c1
:100590003400f800881f780008002000a8018800b7
:1005a0004f0478000000fa0005e1a9008460a9006a
:1005b0000021ef000080fa003400f900004006003e
:1005c0000040da000000fe0000000500889fbe0029
:1005d00010b080000000e0000100320000000100c7
:1005e00020b080000000e0000100320000000100a7
:1005f000006021001004e00022003a0050b48000a6
:1006000061b4800088002000d260260093012000a1
:1006100035000700f2352f00e3c62300000041003b
:10062000818049000804e900f7ff3a006860210072
:100630000908200088844400d2602600930120002d
:1006400029000700f2352f00e3c623000000410017
:100650008180490000acbe00890f5400f6ff3a00cb
:1006600050b4880061b4880030b4800041b4800088
:1006700030b0880041b0880011c0b3000060210094
:1006800001487800d26026009301200050b4800019
:1006900061b4800014000700f2352f00e3c6230088
:1006a000000241008182490054b4880065b488008a
:1006b00060602100100078007f0160004211dd00c1
:1006c000a0602100020140001200be0030b088008e
:1006d00041b088000489be000100780000f0a1004c
:1006e0004f04be0000000600020ab900001bb9005a
:1006f0000200b800810042008100430000000600b3
:020000040000fa
:1007000000000000000000000000000000000000e9
:1007100000000000000000000000000000000000d9
:1007200000000000000000000000000000000000c9
:1007300000000000000000000000000000000000b9
:10074000000000000000000080000000c000000069
:10075000c0000000c0000000000000000000000019
:100760000000000000000000000000000000000089
:100770000000000000000000000000000000000079
:100780000000000000000000000000000000000069
:100790000000000000000000000000000000000059
:1007a0000000000000000000000000000000000049
:1007b0000000000000000000000000000000000039
:1007c0000000000000000000000000000000000029
:1007d0000000000000000000000000000000000019
:1007e0000000000000000000000000000000000009
:1007f00000000000000000000000000000000000f9
:1008000000000000000000000000000000000000e8
:1008100000000000000000000000000000000000d8
:1008200000000000000000000000000000000000c8
:1008300000000000000000000000000000000000b8
:1008400000000000000000000000000000000000a8
:100850000000000000000000000000000000000098
:100860000000000000000000000000000000000088
:100870000000000000000000000000000000000078
:100880000000000000000000000000000000000068
:100890000000000000000000000000000000000058
:1008a0000000000000000000000000000000000048
:1008b0000000000000000000000000000000000038
:1008c0000000000000000000000000000000000028
:1008d0000000000000000000000000000000000018
:1008e0000000000000000000000000000000000008
:1008f00000000000000000000000000000000000f8
:1009000000000000000000000000000000000000e7
:1009100000000000000000000000000000000000d7
:1009200000000000000000000000000000000000c7
:1009300000000000000000000000000000000000b7
:1009400000000000ff000000fe000000ff000000ab
:10095000ff000000ff000000ff0000007c0000001e
:10096000f0000000f0000000f0000000f0000000c7
:10097000f0000000f0000000f0000000f0000000b7
:10098000f0000000f0000000f0000000f0000000a7
:10099000f000000000000000f8000000f800000077
:1009a000f00000000000000000000000f80000005f
:1009b000f80000000000000000000000000000003f
:1009c00000000000c0000000f000000078000000ff
:1009d0007800000078000000780000007800000037
:1009e000000000000000000000000000f80000000f
:1009f000f000000000000000000000000000000007
:100a0000f8000000f8000000c00000000000000036
:100a100000000000c0000000f8000000f800000026
:100a2000000000000000000000000000f8000000ce
:100a3000f8000000000000000000000000000000be
:100a4000f8000000000000000000000000000000ae
:100a5000000000000000000000000000f0000000a6
:100a6000f8000000f8000000c000000000000000d6
:100a70000000000000000000000000000000000076
:100a8000f8000000f8000000c000000000000000b6
:100a90000000000000000000f8000000f800000066
:100aa00000000000000000000000000080000000c6
:100ab000f0000000f0000000780000007800000066
:100ac0007800000078000000000000000000000036
:100ad00000000000f8000000f8000000f80000002e
:100ae000c00000000000000000000000f80000004e
:100af000f8000000000000000000000000000000fe
:100b000000000000000000000000000000000000e5
:100b100000000000000000000000000000000000d5
:100b200000000000000000000000000000000000c5
:100b300000000000000000000000000000000000b5
:100b400000000000070000000b0000001f00000074
:100b50001f000000170000000b0000000100000053
:100b6000000000000000000080000000c000000045
:100b7000e0000000f0000000f0000000f0000000c5
:100b8000f0000000f0000000f0000000f0000000a5
:100b9000e000000000000000ff0000000100000075
:100ba00007000000f8000000c0000000ff00000087
:100bb000ff00000000000000000000000000000036
:100bc00000000000ff000000700000007000000046
:100bd0007000000070000000700000007000000055
:100be0000000000000000000000000000f000000f6
:100bf000ff000000f800000000000000ff000000ff
:100c00007f00000003000000ff000000e000000083
:100c100000000000ff0000003f0000000300000093
:100c2000000000000000000000000000ff000000c5
:100c3000ff00000078000000700000007800000055
:100c4000ff000000000000000000000000000000a5
:100c50000000000000000000c0000000bf00000015
:100c60008f00000081000000ff000000f80000007d
:100c70000000000000000000000000000000000074
:100c80000f0000003f000000ff0000000000000017
:100c9000e0000000f80000000f000000010000006c
:100ca0000000000000000000f8000000ff0000004d
:100cb0007900000078000000700000007000000063
:100cc0007000000070000000000000000000000044
:100cd00000000000ff000000ff000000ff00000017
:100ce0001f000000f0000000e0000000ff00000016
:100cf000ff000000000000000000000000000000f5
:100d000000000000000000000000000000000000e3
:100d100000000000000000000000000000000000d3
:100d200000000000c0000000f8000000fe0000000d
:100d3000ff000000ff000000f8000000d0000000ed
:100d400000000000000000000000000000000000a3
:100d5000000000000000000000000000c0000000d3
:100d6000b80000003c000000070000000300000085
:100d700080000000f0000000f0000000f000000023
:100d8000f0000000f0000000f0000000f0000000a3
:100d9000e000000000000000ff0000000000000074
:100da00000000000030000003f000000ff00000002
:100db000ff00000000000000000000000000000034
:100dc000000000001f00000078000000f00000009c
:100dd000f0000000f0000000f0000000f000000053
:100de0000000000000000000000000000000000003
:100df00003000000ff000000ff0000007f00000073
:100e000000000000000000001f000000ff000000c4
:100e1000fe0000000f0000000000000000000000c5
:100e2000000000000000000000000000ff000000c3
:100e3000ff000000000000000000000000000000b3
:100e4000ff000000000000000000000000000000a3
:100e500000000000f8000000ff0000000700000094
:100e60000700000007000000070000003f0000002e
:100e7000ff000000800000000000000000000000f3
:100e8000000000000000000001000000ff00000062
:100e9000ff0000003f000000000000000000000014
:100ea0000000000000000000010000000f00000032
:100eb0007c00000078000000f0000000f00000005e
:100ec000f0000000f0000000000000000000000042
:100ed00000000000ff000000ff000000ff00000015
:100ee00000000000070000001f000000ff000000dd
:100ef000ff000000000000000000000000000000f3
:100f000000000000000000000000000000000000e1
:100f100000000000000000000000000000000000d1
:100f2000000000000e0000003f000000ff00000075
:100f3000ff000000ff0000007f0000001b00000019
:100f40000e0000000e0000000e0000000e00000069
:100f50000e0000000e0000000f0000000300000063
:100f60000000000000000000e00000007c00000025
:100f70000f00000000000000000000000000000062
:100f80000000000000000000000000000000000061
:100f90000000000000000000f0000000f000000071
:100fa000f0000000f0000000e0000000e0000000a1
:100fb00080000000000000000000000000000000b1
:100fc00000000000f0000000000000000000000031
:100fd000000000000000000080000000c0000000d1
:100fe000f0000000f0000000f0000000f000000041
:100ff000f0000000f0000000000000000000000011
:101000000000000000000000f0000000f000000000
:10101000f0000000f0000000f0000000f000000010
:10102000e0000000c0000000000000000000000020
:101030000000000000000000f000000000000000c0
:1010400000000000000000000000000000000000a0
:101050000000000000000000000000000000000090
:10106000c0000000f0000000f000000000000000e0
:101070000000000000000000000000000000000070
:10108000f0000000f0000000f00000000000000090
:101090000000000080000000f00000007000000070
:1010a0000000000000000000000000000000000040
:1010b0000000000000000000000000000000000030
:1010c0000000000000000000000000000000000020
:1010d0000000000000000000000000000000000010
:1010e0000000000000000000000000000000000000
:1010f00000000000000000000000000000000000f0
:101100000000000000000000e0000000f40000000b
:10111000fe000000ff000000fe000000fc000000d8
:10112000800000000000000000000000000000003f
:1011300001000000010000000000000000000000ad
:10114000000000000000000000000000000000009f
:101150000000000000000000c0000000f0000000df
:101160002e0000001d000000000000000000000034
:10117000000000000000000000000000000000006f
:10118000000000000000000000000000000000005f
:101190000000000000000000ff0000000000000050
:1011a0000000000000000000000000000700000038
:1011b000ff00000000000000000000000000000030
:1011c00000000000ff000000000000000000000020
:1011d00000000000000000003f0000007f00000051
:1011e000e0000000e0000000e0000000e00000007f
:1011f000e0000000e000000000000000000000002f
:101200000000000000000000ff000000ff000000e0
:10121000c0000000c0000000c0000000c0000000ce
:10122000ff000000ff0000000000000000000000c0
:101230000000000000000000ff00000000000000af
:10124000000000000000000000000000000000009e
:10125000000000000000000000000000fe00000090
:10126000ff000000070000003f000000fe0000003b
:10127000e00000000000000000000000000000008e
:10128000000000000300000007000000f80000005c
:10129000fe0000003f000000000000000000000011
:1012a000000000000000000000000000000000003e
:1012b000000000000000000000000000000000002e
:1012c000000000000000000000000000000000001e
:1012d000000000000000000000000000000000000e
:1012e00000000000000000000000000000000000fe
:1012f00000000000000000000000000000000000ee
:1013000000000000000000000f0000007f0000004f
:10131000ff000000ff000000ff0000003f00000091
:101320000f0000000f0000000f0000000f00000081
:101330000f0000000f0000000f0000000f00000071
:101340000f0000000f0000000f0000000f00000061
:101350000b0000000f00000003000000010000006f
:10136000000000000000000000000000000000007d
:10137000000000000000000000000000000000006d
:10138000000000000000000000000000000000005d
:101390000000000000000000ff000000e00000006e
:1013a000e0000000e0000000e0000000fc000000a1
:1013b0003f000000000000000000000000000000ee
:1013c00000000000ff00000000000000000000001e
:1013d0000000000000000000e0000000e00000004d
:1013e000e0000000e0000000e0000000e10000007c
:1013f000f1000000ff0000000000000000000000fd
:101400000000000000000000ff000000ff000000de
:1014100003000000030000000300000003000000c0
:1014200001000000000000000000000000000000bb
:101430000000000000000000ff000000e0000000cd
:10144000e0000000e0000000e000000000000000fc
:101450000000000080000000f80000000f00000005
:101460000f0000000f0000000f0000000f00000040
:10147000ff000000e000000000000000000000008d
:10148000000000000000000000000000ff0000005d
:10149000ff0000000000000000000000000000004d
:1014a000000000000000000000000000000000003c
:1014b000000000000000000000000000000000002c
:1014c000000000000000000000000000000000001c
:1014d000000000000000000000000000000000000c
:1014e00000000000000000000000000000000000fc
:1014f00000000000000000000000000000000000ec
:1015000000000000000000000000000000000000db
:1015100000000000000000000000000000000000cb
:1015200000000000000000000000000000000000bb
:1015300000000000000000000000000000000000ab
:10154000000000000000000000000000000000009b
:10155000000000000000000000000000000000008b
:10156000000000000000000000000000000000007b
:10157000000000000000000000000000000000006b
:10158000000000000000000000000000000000005b
:101590000000000000000000010000000100000049
:1015a0000100000001000000010000000000000038
:1015b000000000000000000000000000000000002b
:1015c000000000000100000000000000000000001a
:1015d000000000000000000000000000010000000a
:1015e00001000000010000000100000001000000f7
:1015f00001000000000000000000000000000000ea
:1016000000000000000000000100000001000000d8
:1016100000000000000000000000000000000000ca
:1016200000000000000000000000000000000000ba
:1016300000000000000000000000000001000000a9
:101640000100000001000000010000000000000097
:101650000000000001000000010000000000000088
:10166000000000000000000000000000000000007a
:101670000100000001000000000000000000000068
:101680000000000000000000000000000100000059
:10169000000000000000000000000000000000004a
:1016a000000000000000000000000000000000003a
:1016b000000000000000000000000000000000002a
:1016c000000000000000000000000000000000001a
:1016d000000000000000000000000000000000000a
:1016e00000000000000000000000000000000000fa
:1016f00000000000000000000000000000000000ea
:020000040000fa
:1017000000080000000e00000200000000000000c1
:1017100000000000000000000000000000000000c9
:1017200000000000000000000000000000000000b9
:10173000000000000000ff00ffffff00ffffff00b0
:10174000ffffff00ffffff00ffffff00ffffff00a5
:10175000ffffff00ffffff00ffffff00ffffff0095
:10176000ff0000000000000000000000000000007a
:101770000000000000000000000000000000000069
:101780000000000000000000000000000000000059
:101790000000000000000000000000000000000049
:1017a0000000000000000000000000000000000039
:1017b0000000000000000000000000000000000029
:1017c000000000000000000000000000ffffff001c
:1017d000ffffff00ffff000000000000000000000e
:1017e00000000000000000000000000000000000f9
:1017f000000000000000ff00ffffff00ffffff00f0
:10180000ff000000000000000000000000000000d9
:1018100000000000000000000000000000000000c8
:1018200000ffff00ffffff00ffffff0000000000c0
:1018300000000000000000000000000000000000a8
:10184000000000000000000000000000ffffff009b
:10185000ffffff00ffff000000000000000000008d
:101860000000000000000000000000000000000078
:101870000000000000000000000000000000000068
:101880000000000000000000000000000000000058
:101890000000000000000000000000000000000048
:1018a0000000000000000000000000000000000038
:1018b000000000000000ff00ffffff00ffffff002f
:1018c000ffffff00ffffff00ffffff00ffffff0024
:1018d000ffffff00ffffff00ffffff00ffffff0014
:1018e000ff000000000000000000000000000000f9
:1018f00000000000000000000000000000000000e8
:1019000000000000000000000000000000000000d7
:10191000000000000000ff00ffffff00ffffff00ce
:10192000ff000000000000000000000000000000b8
:1019300000000000000000000000000000000000a7
:1019400000ffff00ffffff00ffffff00000000009f
:101950000000000000000000000000000000000087
:10196000000000000000000000000000ffffff007a
:10197000ffffff00ffff000000000000000000006c
:101980000000000000000000000000000000000057
:10199000000000000000ff00ffffff00ffffff004e
:1019a000ff00000000000000000000000000000038
:1019b000000000000000ff00ffffff00ffffff002e
:1019c000ff00000000000000000000000000000018
:1019d0000000000000000000000000000000000007
:1019e00000ffff00ffffff00ffffff00ffffff0002
:1019f000ffffff00ffffff00ffffff00ffffff00f3
:101a0000ff000000000000000000000000000000d7
:101a100000000000000000000000000000000000c6
:101a200000000000000000000000000000000000b6
:101a300000000000000000000000000000000000a6
:101a40000000000000000000000000000000000096
:101a50000000000000000000000000000000000086
:101a6000000000000000000000000000ffffff0079
:101a7000ffffff00ffffff00ffffff00ffffff0072
:101a8000ff00000000000000000000000000000057
:101a9000000000000000ff00ffffff00ffffff004d
:101aa000ff00000000000000000000000000000037
:101ab0000000000000000000000000000000000026
:101ac00000ffff00ffffff00ffffff00000000001e
:101ad0000000000000000000000000000000000006
:101ae00000000000000000000000000000000000f6
:101af00000000000000000000000000000000000e6
:101b000000000000000000000000000000000000d5
:101b100000000000000000000000000000000000c5
:101b200000000000000000000000000000000000b5
:101b3000000000000000ff00ffffff00ffffff00ac
:101b4000ffffff00ffffff00ffffff00ffffff00a1
:101b5000ffffff00ffff000000000000000000008a
:101b60000000000000000000000000000000000075
:101b7000000000000000ff00ffffff00ffffff006c
:101b8000ff00000000000000000000000000000056
:101b90000000000000000000000000000000000045
:101ba0000000000000000000000000000000000035
:101bb0000000000000000000000000000000000025
:101bc00000ffff00ffffff00ffffff00000000001d
:101bd0000000000000000000000000000000000005
:101be000000000000000000000000000ffffff00f8
:101bf000ffffff00ffff00000000000000000000ea
:101c0000000000000000000000000000ffffff00d7
:101c1000ffffff00ffffff00ffffff00ffffff00d0
:101c2000ff000000000000000000000000000000b5
:101c300000000000000000000000000000000000a4
:101c40000000000000000000000000000000000094
:101c50000000000000000000000000000000000084
:101c60000000000000000000000000000000000074
:101c7000000000000000ff00ffffff00ffffff006b
:101c8000ff0000000000000000000000ffffff0058
:101c9000ffffff00ffffff00ffffff00ffffff0050
:101ca000ffffff00ffffff00ffffff00000000003d
:101cb0000000000000000000000000000000000024
:101cc0000000000000000000000000000000000014
:101cd0000000000000000000000000000000000004
:101ce00000000000000000000000000000000000f4
:101cf00000000000000000000000000000000000e4
:101d000000000000000000000000000000000000d3
:101d1000000000000000ff00ffffff00ffffff00ca
:101d2000ff000000000000000000000000000000b4
:101d300000000000000000000000000000000000a3
:101d400000ffff00ffffff00ffffff00000000009b
:101d50000000000000000000000000000000000083
:101d6000000000000000000000000000ffffff0076
:101d7000ffffff00ffffff00ffffff00ffffff006f
:101d8000ff00000000000000000000000000000054
:101d90000000000000000000000000000000000043
:101da0000000000000000000000000000000000033
:101db0000000000000000000000000000000000023
:101dc0000000000000000000000000000000000013
:101dd0000000000000000000000000000000000003
:101de00000ffff00ffffff00ffffff00ffffff00fe
:101df000ffffff00ffffff00ffffff00ffffff00ef
:101e0000ff0000000000000000000000ffffff00d6
:101e1000ffffff00ffff00000000000000000000c7
:101e200000000000000000000000000000000000b2
:101e300000000000000000000000000000000000a2
:101e40000000000000000000000000000000000092
:101e50000000000000000000000000000000000082
:101e600000ffff00ffffff00ffffff00ffffff007d
:101e7000ffffff00ffff0000000000000000000067
:101e80000000000000000000000000000000000052
:101e9000000000000000ff00ffffff00ffffff0049
:101ea000ff00000000000000000000000000000033
:101eb0000000000000000000000000000000000022
:101ec00000ffff00ffffff00ffffff00000000001a
:101ed0000000000000000000000000000000000002
:101ee00000000000000000000000000000000000f2
:101ef00000000000000000000000000000000000e2
:101f0000000000000000000000000000ffffff00d4
:101f1000ffffff00ffffff00ffffff00ffffff00cd
:101f2000ff000000000000000000000000000000b2
:101f3000000000000000ff00ffffff00ffffff00a8
:101f4000ffffff00ffffff00ffffff00000000009a
:101f50000000000000000000000000000000000081
:101f60000000000000000000000000000000000071
:101f70000000000000000000000000000000000061
:101f80000000000000000000000000000000000051
:101f90000000000000000000000000000000000041
:101fa0000000000000000000000000000000000031
:101fb000000000000000ff00ffffff00ffffff0028
:101fc000ffffff00ffffff00ffffff00000000001a
:101fd0000000000000000000000000000000000001
:101fe00000ffff00ffffff00ffffff00ffffff00fc
:101ff000ffffff00ffff00000000000000000000e6
:1020000000000000000000000000000000000000d0
:1020100000000000000000000000000000000000c0
:1020200000000000000000000000000000000000b0
:1020300000000000000000000000000000000000a0
:102040000000000000000000000000000000000090
:102050000000000000000000000000000000000080
:1020600000ffff00ffffff00ffffff00ffffff007b
:10207000ffffff00ffff0000000000000000000065
:10208000000000000000000000000000ffffff0053
:10209000ffffff00ffffff00ffffff00ffffff004c
:1020a000ff00000000000000000000000000000031
:1020b0000000000000000000000000000000000020
:1020c0000000000000000000000000000000000010
:1020d0000000000000000000000000000000000000
:1020e00000000000000000000000000000000000f0
:1020f00000000000000000000000000000000000e0
:10210000000000000000000000000000ffffff00d2
:10211000ffffff00ffffff00ffffff00ffffff00cb
:10212000ff000000000000000000000000000000b0
:10213000000000000000ff00ffffff00ffffff00a6
:10214000ffffff00ffffff00ffffff000000000098
:10215000000000000000000000000000000000007f
:10216000000000000000000000000000000000006f
:10217000000000000000000000000000000000005f
:10218000000000000000000000000000000000004f
:10219000000000000000000000000000000000003f
:1021a000000000000000000000000000000000002f
:1021b000000000000000000000000000000000001f
:1021c000000000000000000000000000000000000f
:1021d00000000000000000000000000000000000ff
:1021e00000ffff00ffffff00ffffff00ffffff00fa
:1021f000ffffff00ffffff00ffffff00ffffff00eb
:10220000ff000000000000000000000000000000cf
:10221000000000000000ff00ffffff00ffffff00c5
:10222000ff000000000000000000000000000000af
:10223000000000000000000000000000000000009e
:10224000000000000000000000000000000000008e
:10225000000000000000000000000000000000007e
:10226000000000000000000000000000ffffff0071
:10227000ffffff00ffff0000000000000000000063
:10228000000000000000000000000000ffffff0051
:10229000ffffff00ffffff00ffffff00ffffff004a
:1022a000ff0000000000000000000000000000002f
:1022b000000000000000000000000000000000001e
:1022c00000ffff00ffffff00ffffff000000000016
:1022d00000000000000000000000000000000000fe
:1022e00000000000000000000000000000000000ee
:1022f00000000000000000000000000000000000de
:1023000000000000000000000000000000000000cd
:10231000000000000000ff00ffffff00ffffff00c4
:10232000ff000000000000000000000000000000ae
:10233000000000000000ff00ffffff00ffffff00a4
:10234000ffffff00ffffff00ffffff00ffffff0099
:10235000ffffff00ffff0000000000000000000082
:10236000000000000000000000000000000000006d
:10237000000000000000000000000000000000005d
:10238000000000000000000000000000000000004d
:10239000000000000000000000000000000000003d
:1023a000000000000000000000000000000000002d
:1023b000000000000000000000000000000000001d
:1023c00000ffff00ffffff00ffffff000000000015
:1023d00000000000000000000000000000000000fd
:1023e000000000000000000000000000ffffff00f0
:1023f000ffffff00ffffff00ffffff00ffffff00e9
:10240000ff000000000000000000000000000000cd
:10241000000000000000ff00ffffff00ffffff00c3
:10242000ff000000000000000000000000000000ad
:10243000000000000000000000000000000000009c
:10244000000000000000000000000000000000008c
:10245000000000000000000000000000000000007c
:10246000000000000000000000000000ffffff006f
:10247000ffffff00ffffff00ffffff00ffffff0068
:10248000ff0000000000000000000000ffffff0050
:10249000ffffff00ffffff00ffffff00ffffff0048
:1024a000ff0000000000000000000000000000002d
:1024b000000000000000000000000000000000001c
:1024c000000000000000000000000000000000000c
:1024d00000000000000000000000000000000000fc
:1024e00000000000000000000000000000000000ec
:1024f00000000000000000000000000000000000dc
:1025000000000000000000000000000000000000cb
:10251000000000000000ff00ffffff00ffffff00c2
:10252000ff000000000000000000000000000000ac
:10253000000000000000000000000000000000009b
:1025400000ffff00ffffff00ffffff00ffffff0096
:10255000ffffff00ffff0000000000000000000080
:10256000000000000000000000000000000000006b
:10257000000000000000ff00ffffff00ffffff0062
:10258000ff0000000000000000000000000000004c
:10259000000000000000000000000000000000003b
:1025a000000000000000000000000000000000002b
:1025b000000000000000000000000000000000001b
:1025c000000000000000000000000000000000000b
:1025d00000000000000000000000000000000000fb
:1025e000000000000000000000000000ffffff00ee
:1025f000ffffff00ffffff00ffffff00ffffff00e7
:10260000ff0000000000000000000000ffffff00ce
:10261000ffffff00ffffff00ffffff00ffffff00c6
:10262000ff000000000000000000000000000000ab
:10263000000000000000000000000000000000009a
:10264000000000000000000000000000000000008a
:10265000000000000000000000000000000000007a
:1026600000ffff00ffffff00ffffff000000000072
:10267000000000000000000000000000000000005a
:10268000000000000000000000000000ffffff004d
:10269000ffffff00ffffff00ffffff00ffffff0046
:1026a000ff0000000000000000000000000000002b
:1026b000000000000000000000000000000000001a
:1026c00000ffff00ffffff00ffffff000000000012
:1026d00000000000000000000000000000000000fa
:1026e00000000000000000000000000000000000ea
:1026f00000000000000000000000000000000000da
:10270000000000000000000000000000ffffff00cc
:10271000ffffff00ffffff00ffffff00ffffff00c5
:10272000ff000000000000000000000000000000aa
:102730000000000000000000000000000000000099
:1027400000ffff00ffffff00ffffff00ffffff0094
:10275000ffffff00ffff000000000000000000007e
:102760000000000000000000000000000000000069
:102770000000000000000000000000000000000059
:102780000000000000000000000000000000000049
:102790000000000000000000000000000000000039
:1027a0000000000000000000000000000000000029
:1027b0000000000000000000000000000000000019
:1027c000000000000000000000000000ffffff000c
:1027d000ffffff00ffff00000000000000000000fe
:1027e000000000000000000000000000ffffff00ec
:1027f000ffffff00ffffff00ffffff00ffffff00e5
:10280000ff000000000000000000000000000000c9
:10281000000000000000ff00ffffff00ffffff00bf
:10282000ff000000000000000000000000000000a9
:102830000000000000000000000000000000000098
:102840000000000000000000000000000000000088
:102850000000000000000000000000000000000078
:102860000000000000000000000000000000000068
:102870000000000000000000000000000000000058
:10288000000000000000000000000000ffffff004b
:10289000ffffff00ffffff00ffffff00ffffff0044
:1028a000ff00000000000000000000000000000029
:1028b0000000000000000000000000000000000018
:1028c00000ffff00ffffff00ffffff00ffffff0013
:1028d000ffffff00ffff00000000000000000000fd
:1028e00000000000000000000000000000000000e8
:1028f00000000000000000000000000000000000d8
:1029000000000000000000000000000000000000c7
:10291000000000000000ff00ffffff00ffffff00be
:10292000ff000000000000000000000000000000a8
:10293000000000000000ff00ffffff00ffffff009e
:10294000ffffff00ffffff00ffffff000000000090
:102950000000000000000000000000000000000077
:1029600000ffff00ffffff00ffffff00000000006f
:102970000000000000000000000000000000000057
:102980000000000000000000000000000000000047
:102990000000000000000000000000000000000037
:1029a0000000000000000000000000000000000027
:1029b00000000000000000008a1600000400000073
:1029c00002000000010000000000000000160000ee
:0c29d0008a000000000000000000000071
:020000040000fa
:1029dc000e00fa00100798002107980032079800a3
:1029ec004307980054079800650798001e0078006c
:1029fc00e30f500022003200e30f500007003c00b0
:102a0c00e10f500012003200e10f500016003c00a4
:102a1c000000e0000800320031003700e50f5000e4
:102a2c0023003200e50f50001b003500e60f50006c
:102a3c00250032002a003700018020003e00900063
:102a4c004700dd000080400040079800240037005c
:102a5c0001a020003e0090004700dd0000804000f7
:102a6c00400798001e003700012021003e00900016
:102a7c004700dd0000804000400798001800370038
:102a8c0001e020003e0090004700dd000080400087
:102a9c00400798001200370001c020003e00900053
:102aac004700dd0000804000400798000c00370014
:102abc00010021003e0090004700dd000080400036
:102acc004007980006003700014021003e009000ae
:102adc004700dd0000804000400798000000000027
:102aec003e009000e30f50000a003a000000eb009b
:102afc00300798001e007800e60f500002003a00e4
:102b0c00a0ff2f0001003700100020001e0f400016
:102b1c00030037003e0090000000e80030079800ea
:102b2c00de0090006e009000ae0207005e02900086
:102b3c001e009000ae0090003e019000ce0190006f
:102b4c00ec0207005e009000bb020700a7ff3700f5
:102b5c000200fa009af607007100200001017800cb
:102b6c00110009000200d8008000fd00000f780061
:102b7c001e007800e30f500016003200e30f5000e7
:102b8c0007003c00e10f50000e003200e10f500036
:102b9c000e003c000000e000080032001500370079
:102bac00e50f50000f003200e50f50000b00350010
:102bbc00e60f50000d0032000e00370000802000a0
:102bcc000d00370000a020000b00370000c02000d3
:102bdc000900370000e0200007003700000021004a
:102bec0005003700002021000300370000402100c1
:102bfc0001003700004021000080fa0000000600b0
:102c0c001e08fa007d030700b2010700da01070075
:102c1c00760047002c0207006041200000004700ae
:102c2c003a02070060812000000047008000eb00a2
:102c3c00010878006081200000004700210020007e
:102c4c001100980060812000000047008000eb001c
:102c5c0021009800beff0700618120008100470021
:102c6c00b00098000000eb00000f7800400120003d
:102c7c00000f98000000eb00600798000000eb00cc
:102c8c007007980000712200100888008460a90069
:102c9c0021058000f0ff28000080600000e0a0000b
:102cac00200588009460a8000003200020088800fc
:102cbc003901370005e1a800000000002004800065
:102ccc00680060000000e000fcff32008460a90096
:102cdc0010168000610060000000e00012003a0055
:102cec006041200080004700608120000000470008
:102cfc008042eb00010278005001be004000be0093
:102d0c00ad0207000000e0000700320060812000e7
:102d1c0000004700100090008000e8006081200057
:102d2c00000047001100980010168000620060003f
:102d3c000000e00012003a006041200080004700d3
:102d4c00608120000000470015c0b300010278002c
:102d5c005001be004000be00970207000000e000da
:102d6c000700320060812000000047001000900036
:102d7c008000e900608120000000470011009800ed
:102d8c0010168000640060000000e00012003a00a1
:102d9c006041200080004700608120000000470057
:102dac0025c0b300010278005001be004000be00f7
:102dbc00810207000000e000070032006081200063
:102dcc000000470010007800e800400060812000ff
:102ddc0000004700010878001016800068006000b1
:102dec000000e00030003a00604120008000470005
:102dfc00608120000000470035c0b300010278005c
:102e0c005001be004000be006b0207000000e00055
:102e1c002500320060812000000047002000900057
:102e2c00e30f500009003a006081200000004700c9
:102e3c003000900001e82f0080804000608120006d
:102e4c000000470031009800080037006081200026
:102e5c0000004700300090000108200080804000f6
:102e6c006081200000004700310098006081200044
:102e7c0000004700a0009000608120000000470087
:102e8c0020009000e30f500002003a00d0ff2f000a
:102e9c00010037001000200080804000608120007d
:102eac0000004700210098009e0078000e0890005a
:102ebc0000017800110009008200d8008000fd009c
:102ecc000000e000a6003a006041200080004700ae
:102edc00608120000000470025c0b300010278008b
:102eec005001be004000be00330207000000e000ad
:102efc0008003200608120000000470010007800bc
:102f0c00e8004000608120000000470001087800c4
:102f1c00930037000000eb002007980031003700c9
:102f2c000000eb0010079800280037002e009000de
:102f3c00c500dd001e00900000804000100f9800be
:102f4c006081200000004700900090002e0090004f
:102f5c0000804000c700dd006081200000004700b9
:102f6c00100178001e00900000004100008040001d
:102f7c00200f98006081200000004700b0009000f6
:102f8c001e0890000080400010407800e14f400087
:102f9c000b003a006081200000004700b000900058
:102fac001e08900000804000904078006041200096
:102fbc00000147002e0890000000410001487800f5
:102fcc001e0090000000e800100798001e00900002
:102fdc00ff0f5000d5ff34002e0090000000e800d9
:102fec00200798002e009000e30f5000ccff340017
:102ffc000000eb0030079800380037000000eb00b1
:10300c005007980060412000800047003e0090006f
:10301c000080400010407800e14f400015003a005d
:10302c0010002000400798000f0037004e00900061
:10303c00c700dd003e009000008040006141200090
:10304c008100470061407800e14f400003003a00e6
:10305c005e0090000000e800500798004e009000c1
:10306c000000e800400798004e009000e60f50006a
:10307c00eeff34005e009000e60f500014003a00a2
:10308c006e0090000000e80060079800100020001f
:10309c00400798000b0037004e009000c700dd0081
:1030ac003e009000008040006141200081004700fc
:1030bc000041eb00827078004e0090000000e800a8
:1030cc00400798004e009000e60f5000f2ff3400cd
:1030dc003e0090000000e80030079800be00900011
:1030ec0070072000808f5000c4ff340060812000e6
:1030fc00000047008000eb00010878006081200090
:10310c000000470031002000110098006081200071
:10311c00000047008000eb00210098008cfe0700a7
:10312c006181200081004700b000980060412000c0
:10313c0080004700608120000000470025c0b300dc
:10314c00010278005001be004000be009a01070049
:10315c000000e00002003a00100020007007980008
:10316c001e0fe800f60047006041200000004700f9
:10317c001c010700f600470060812000000047009a
:10318c00010278005001be004000be00590107004a
:10319c0076004700280107007e0090000000e00048
:1031ac00c4fe320010168000610060000000e000d8
:1031bc0024003a0060812000000047008000eb00f2
:1031cc0001087800608120000000470031002000d9
:1031dc001100980060812000000047008000eb0087
:1031ec00210098005afe07006181200081004700f1
:1031fc00b000980076004700b30007006041200043
:10320c0000004700c1000700f600470060412000a5
:10321c0000004700f3000700f60047006081200023
:10322c0000004700010278005001be004000be00c3
:10323c003001070076004700ff0007000000eb009c
:10324c007007980000000000d3ff37000200fa005e
:10325c00000f78000080eb0060168800611680007b
:10326c001e0078000080600060168800cd42a90026
:10327c00cd62a900cd02a900cd82a800cd82a90003
:10328c00cd02a800cd62a8000080fa000000060064
:10329c000200fa00000f78000080eb006016880036
:1032ac00611680001e0078000080600060168800a7
:1032bc00cd42a800cd62a900cd02a900cd82a80004
:1032cc00cd82a900cd02a800cd62a8000080fa0032
:1032dc00000006000000fa00cd22a90005e1a800bc
:1032ec000000000020048000680060000000e00086
:1032fc00fcff3200cd22a80005e1a8000000000070
:10330c0020048000680060000000e000fcff320038
:10331c00cd02a800cd82a800cd62a800cd42a800a5
:10332c0020fa2f00c9ff070000fa2f00c7ff070083
:10333c0080fc2f00c5ff070040fa2f00c3ff0700d9
:10334c0000f42f00c1ff070050f22f00bfff070051
:10335c0010f82f00bdff070000f12f00bbff070086
:10336c00f0f22f00b9ff0700f0fa2f00b7ff0700ab
:10337c000080fa00000006000600fa0000fb2f0097
:10338c002007980000f42f00b0ff07000000eb00ae
:10339c00000f7800160037002e009000abff0700de
:1033ac0000f12f00a9ff070000f02f00a7ff070076
:1033bc000000eb00100798000500370000f02f000c
:1033cc00b3ff07001e0090000000e80010079800f3
:1033dc009e009000f0072000808f5000f7ff360011
:1033ec002e0090000000e800200798001e0fe80057
:1033fc001e007800e70f5000e7ff36000080fa004f
:10340c00000006000808fa00e8004700023828000f
:10341c00ff030900b21878000000eb0020079800a9
:10342c0000fb2f003007980000f42f0087ff0700e7
:10343c000000eb00000f78001e0037003e009000eb
:10344c0082ff070000f12f0080ff070000f02f0023
:10345c007eff07000000eb00100798000d003700fe
:10346c002e0090000000400000004700c0009000bb
:10347c0000f02f000100700085ff07002e00900067
:10348c000000e800200798001e0090000000e800f3
:10349c00100798009e009000f0072000808f5000cd
:1034ac00efff36003e0090000000e8003007980067
:1034bc001e0fe8001e007800e70f5000dfff3600fb
:1034cc000080fa00000006000400fa0010079800c3
:1034dc000000eb00000f7800060037001e0078009b
:1034ec009e009000008040008040eb000148780076
:1034fc001e0fe800f03f20009e007800808f5000e7
:10350c00f6ff34000080fa00000006000600fa0006
:10351c00200798000000eb00100798002c003700e3
:10352c000000eb00000f7800220037001e00900016
:10353c000000e000030032001e009000e70f500076
:10354c0008003a001e0090004700dd001e004000fd
:10355c00ae0090000080400080c0eb000148780075
:10356c0013003700700720009e007800808f5000f9
:10357c00080034001e0090004700dd001e004000d3
:10358c00ae0090000080400080c0eb000148780045
:10359c00070037001e0090004700dd001e004000b1
:1035ac00ae009000008040008040eb0001487800a5
:1035bc001e0fe800f00720009e007800808f50005e
:1035cc00daff34001e0090000000e800100798009d
:1035dc001e009000e70f5000d1ff34000080fa006d
:1035ec00000006000600fa0010079800210798005a
:1035fc000000eb00000f7800090037001e00780077
:10360c00ae009000008040009e0078001e019000eb
:10361c008100410091407800014878001e0fe800bd
:10362c00f03f20009e007800808f5000f3ff3400a4
:10363c000080fa00000006000a00fa00400798001b
:10364c000000eb002007980000fb2f0030079800cb
:10365c0000f42f00fdfe07000000eb00000f7800c7
:10366c001f0037003e009000f8fe070000f12f000d
:10367c00f6fe070000f02f00f4fe07000000eb0040
:10368c00100798000e003700ce0090002e0090001e
:10369c0000804000104078008080fb0000f02f007c
:1036ac0001007000fafe07002e0090000000e800f8
:1036bc00200798001e0090000000e80010079800fa
:1036cc009e009000f0072000808f5000eeff360027
:1036dc003e0090000000e800300798001e0fe80044
:1036ec001e007800e70f5000deff36000080fa0065
:1036fc00000006000e00fa00200798003107980021
:10370c004207980053079800640798000000eb00ec
:10371c00000f7800230037000000eb001007980022
:10372c001c003700de0090001e0090004500dd00fc
:10373c001e00400000804000104078000004e000b3
:10374c00110032003e009000800078001e009000b6
:10375c0000804000c700dd002e0090001e004000dd
:10376c0000804000ee009000008040005e01900060
:10377c009e009000c508dd009e8040008100410045
:10378c0091407800014878001e0090000000e8008d
:10379c00100798001e009000e30f5000e1ff360068
:1037ac001e0fe8001e007800ff0f5000daff3600f5
:1037bc000080fa00000006001400fa004007980090
:1037cc00510798006207980073079800040f98003f
:1037dc00255798000000eb00000f7800810037009f
:1037ec000000eb00100798007a0037001e009000d4
:1037fc004500dd001e00400020079800fe009000f0
:10380c002e0090000080400010407800e14f4000f6
:10381c006d003a002e5090000000fb00e10f5000ac
:10382c001b003200e10f500003003c000000e000e0
:10383c000600320064003700e20f50002500320011
:10384c00e30f5000340032005f003700de009000c0
:10385c001e009000008040000000e800c700dd0062
:10386c004e0090001e004000008040003007980081
:10387c003e0090008e0890000080400010407800c0
:10388c000004e000490032000000eb005900370052
:10389c00de0090001e009000008040000000e90057
:1038ac00c700dd004e0090001e004000008040006c
:1038bc00300798003e0090008e0890000080400079
:1038cc00104078000004e0003a0032000000eb00e9
:1038dc0048003700de0090001e0090000080400081
:1038ec00c700dd004e0090001e0040000000e80004
:1038fc0000804000300798003e0090008e08900039
:10390c0000804000104078000004e0002b003200e2
:10391c000000eb00370037006e009000e30f500002
:10392c0004003a007e0090000018b1007007980067
:10393c00030037007e0090000008b000700798006c
:10394c00de0090001e009000008040000000e800a7
:10395c00c700dd004e0090001e00400000804000bb
:10396c008e08900000804000104078000004e000b9
:10397c000c003a00de0090001e0090000080400019
:10398c00c700dd004e0090001e004000008040008b
:10399c008e08900000804000104078000004e00089
:1039ac00080032000000eb0012003700000000009d
:1039bc000500370000000000030037000000000085
:1039cc0001003700000000001e0090000000e8001d
:1039dc00100798001e009000e30f500083ff340086
:1039ec001e0fe8001e007800ff0f50007cff340013
:1039fc00100020000080fa00000006000000fa0011
:103a0c00213a8000f08f2f0000806000203a88005f
:103a1c00f0ff290060198800c822ef00f00f200089
:103a2c00001688006840a8006860a8006bc0a80059
:103a3c006ba0a800801a2600100888008460a900da
:103a4c0021058000f0ff28000080600000e0a0004d
:103a5c00200588009460a80000022000200888003f
:083a6c000080fa0000000600d2
:020000040000fa
:020000040001f9
:0457f8000ff90000a5
:020000040000fa
:020000040001f9
:0457fc007f3f0000eb
:00000001FF
