:020000040000fa
:080000000002040000000000f2
:020000040000fa
:04000800e002000012
:020000040000fa
:04000c00e00200000e
:020000040000fa
:04001000e00200000a
:020000040000fa
:04001400e002000006
:020000040000fa
:04001800e002000002
:020000040000fa
:04001c00e0020000fe
:020000040000fa
:04002000e0020000fa
:020000040000fa
:04002400e0020000f6
:020000040000fa
:04002800e0020000f2
:020000040000fa
:04002c00e0020000ee
:020000040000fa
:04003000e0020000ea
:020000040000fa
:04003400c8020000fe
:020000040000fa
:04003800e0020000e2
:020000040000fa
:04003c00e0020000de
:020000040000fa
:04004000e0020000da
:020000040000fa
:04004400e0020000d6
:020000040000fa
:04004800e0020000d2
:020000040000fa
:04004c00e0020000ce
:020000040000fa
:04005000e0020000ca
:020000040000fa
:04005400e0020000c6
:020000040000fa
:04005800e0020000c2
:020000040000fa
:04005c00e0020000be
:020000040000fa
:04006000e0020000ba
:020000040000fa
:04006400e0020000b6
:020000040000fa
:04006800e0020000b2
:020000040000fa
:04006c00e0020000ae
:020000040000fa
:04007000e0020000aa
:020000040000fa
:04007400e0020000a6
:020000040000fa
:04007800e0020000a2
:020000040000fa
:04007c00e00200009e
:020000040000fa
:04008000e00200009a
:020000040000fa
:04008400e002000096
:020000040000fa
:04008800e002000092
:020000040000fa
:04008c00e00200008e
:020000040000fa
:04009000e00200008a
:020000040000fa
:04009400e002000086
:020000040000fa
:04009800e002000082
:020000040000fa
:04009c00e00200007e
:020000040000fa
:0400a000e00200007a
:020000040000fa
:0400a400e002000076
:020000040000fa
:0400a800e002000072
:020000040000fa
:0400ac00e00200006e
:020000040000fa
:0400b000e00200006a
:020000040000fa
:0400b400e002000066
:020000040000fa
:0400b800e002000062
:020000040000fa
:0400bc00e00200005e
:020000040000fa
:0400c000e00200005a
:020000040000fa
:0400c400e002000056
:020000040000fa
:0400c800e002000052
:020000040000fa
:0400cc00e00200004e
:020000040000fa
:0400d000e00200004a
:020000040000fa
:0400d400e002000046
:020000040000fa
:0400d800e002000042
:020000040000fa
:0400dc00e00200003e
:020000040000fa
:0400e000e00200003a
:020000040000fa
:0400e400e002000036
:020000040000fa
:0400e800e002000032
:020000040000fa
:0400ec00e00200002e
:020000040000fa
:0400f000e00200002a
:020000040000fa
:0400f400e002000026
:020000040000fa
:0400f800e002000022
:020000040000fa
:0400fc00e00200001e
:020000040000fa
:04010000e002000019
:020000040000fa
:04010400e002000015
:020000040000fa
:04010800e002000011
:020000040000fa
:04010c00e00200000d
:020000040000fa
:04011000e002000009
:020000040000fa
:04011400e002000005
:020000040000fa
:04011800e002000001
:020000040000fa
:04011c00e0020000fd
:020000040000fa
:04012000e0020000f9
:020000040000fa
:04012400e0020000f5
:020000040000fa
:04012800e0020000f1
:020000040000fa
:04012c00e0020000ed
:020000040000fa
:04013000e0020000e9
:020000040000fa
:04013400e0020000e5
:020000040000fa
:04013800e0020000e1
:020000040000fa
:04013c00e0020000dd
:020000040000fa
:04014000e0020000d9
:020000040000fa
:04014400e0020000d5
:020000040000fa
:04014800e0020000d1
:020000040000fa
:04020800e002000010
:020000040000fa
:04020c00e00200000c
:020000040000fa
:04021000e002000008
:020000040000fa
:04021400e002000004
:020000040000fa
:04021800e002000000
:020000040000fa
:04021c00e0020000fc
:020000040000fa
:04022000e0020000f8
:020000040000fa
:04022400e0020000f4
:020000040000fa
:04022800e0020000f0
:020000040000fa
:04022c00e0020000ec
:020000040000fa
:04023000e0020000e8
:020000040000fa
:04023400c8020000fc
:020000040000fa
:04023800e0020000e0
:020000040000fa
:04023c00e0020000dc
:020000040000fa
:04024000e0020000d8
:020000040000fa
:04024400e0020000d4
:020000040000fa
:04024800e0020000d0
:020000040000fa
:04024c00e0020000cc
:020000040000fa
:04025000e0020000c8
:020000040000fa
:04025400e0020000c4
:020000040000fa
:04025800e0020000c0
:020000040000fa
:04025c00e0020000bc
:020000040000fa
:04026000e0020000b8
:020000040000fa
:04026400e0020000b4
:020000040000fa
:04026800e0020000b0
:020000040000fa
:04026c00e0020000ac
:020000040000fa
:04027000e0020000a8
:020000040000fa
:04027400e0020000a4
:020000040000fa
:04027800e0020000a0
:020000040000fa
:04027c00e00200009c
:020000040000fa
:04028000e002000098
:020000040000fa
:04028400e002000094
:020000040000fa
:04028800e002000090
:020000040000fa
:04028c00e00200008c
:020000040000fa
:04029000e002000088
:020000040000fa
:04029400e002000084
:020000040000fa
:04029800e002000080
:020000040000fa
:04029c00e00200007c
:020000040000fa
:0402a000e002000078
:020000040000fa
:0402a400e002000074
:020000040000fa
:0402a800e002000070
:020000040000fa
:0402ac00e00200006c
:020000040000fa
:0402b000e002000068
:020000040000fa
:0402b400e002000064
:020000040000fa
:0402b800e002000060
:020000040000fa
:0402bc00e00200005c
:020000040000fa
:0402c000e002000058
:020000040000fa
:0402c400e002000054
:020000040000fa
:0402c800e002000050
:020000040000fa
:0402cc00e00200004c
:020000040000fa
:0402d000e002000048
:020000040000fa
:0402d400e002000044
:020000040000fa
:0402d800e002000040
:020000040000fa
:0402dc00e00200003c
:020000040000fa
:0402e000e002000038
:020000040000fa
:0402e400e002000034
:020000040000fa
:0402e800e002000030
:020000040000fa
:0402ec00e00200002c
:020000040000fa
:0402f000e002000028
:020000040000fa
:0402f400e002000024
:020000040000fa
:0402f800e002000020
:020000040000fa
:0402fc00e00200001c
:020000040000fa
:04030000e002000017
:020000040000fa
:04030400e002000013
:020000040000fa
:04030800e00200000f
:020000040000fa
:04030c00e00200000b
:020000040000fa
:04031000e002000007
:020000040000fa
:04031400e002000003
:020000040000fa
:04031800e0020000ff
:020000040000fa
:04031c00e0020000fb
:020000040000fa
:04032000e0020000f7
:020000040000fa
:04032400e0020000f3
:020000040000fa
:04032800e0020000ef
:020000040000fa
:04032c00e0020000eb
:020000040000fa
:04033000e0020000e7
:020000040000fa
:04033400e0020000e3
:020000040000fa
:04033800e0020000df
:020000040000fa
:04033c00e0020000db
:020000040000fa
:04034000e0020000d7
:020000040000fa
:04034400e0020000d3
:020000040000fa
:04034800e0020000cf
:020000040000fa
:100400000f6021000e7f22000e0188000000000016
:10041000000020000000e000020032000001200087
:100420002002880014000700670007000000e000b9
:1004300003003a0060ae20000100200002003700f7
:100440000000200001002000810f70000100320038
:1004500014000700000020000000e000020032004d
:1004600000000200000000002c1602000000000046
:100470000040da000000fe004440a9000080200097
:100480000000e0000300320000002000a00188000e
:100490004440a800000006008a1f78008b1f7800e7
:1004a0000000060091018800800478000000eb0045
:1004b0001a003700e284440032a0b4009905ba0063
:1004c000e284440032a0b4009906ba00e2844400f9
:1004d00032a0b4000006eb00476fde00fd07b2005b
:1004e000636ce10003003a00ebff07000000eb0043
:1004f0000a003700606ce10004003a00005deb0088
:100500008b05e900fdff3e00040037006168e10053
:10051000010032000086eb000b00070019c7ba008b
:100520001905ba000e04e00003003a000a00e000da
:10053000e0ff3a0000000600fe07b2009e018800be
:100540008a047800f5ff3700395dba008b05e900b1
:100550000c003200295dba008b05e900080032006a
:100560000c00e00003003a00e284440032a0b40032
:10057000f5ff370019ddba008b05e900faff3a00f4
:100580008904e800e184440032a0b40000000600c1
:100590003400f800881f780008002000a8018800b7
:1005a0004f0478000000fa0005e1a9008460a9006a
:1005b0000021ef000080fa003400f900004006003e
:0c05c0000040da000000fe000000050012
:020000040000fa
:1005cc00000000000000000000000000000000001f
:1005dc00000000000000000000000000000000000f
:1005ec0000000000000000000000000000000000ff
:1005fc0000000000000000000000000000000000ef
:10060c00000000000000000080000000c00000009e
:10061c00c0000000c000000000000000000000004e
:10062c0000000000000000000000000000000000be
:10063c0000000000000000000000000000000000ae
:10064c00000000000000000000000000000000009e
:10065c00000000000000000000000000000000008e
:10066c00000000000000000000000000000000007e
:10067c00000000000000000000000000000000006e
:10068c00000000000000000000000000000000005e
:10069c00000000000000000000000000000000004e
:1006ac00000000000000000000000000000000003e
:1006bc00000000000000000000000000000000002e
:1006cc00000000000000000000000000000000001e
:1006dc00000000000000000000000000000000000e
:1006ec0000000000000000000000000000000000fe
:1006fc0000000000000000000000000000000000ee
:10070c0000000000000000000000000000000000dd
:10071c0000000000000000000000000000000000cd
:10072c0000000000000000000000000000000000bd
:10073c0000000000000000000000000000000000ad
:10074c00000000000000000000000000000000009d
:10075c00000000000000000000000000000000008d
:10076c00000000000000000000000000000000007d
:10077c00000000000000000000000000000000006d
:10078c00000000000000000000000000000000005d
:10079c00000000000000000000000000000000004d
:1007ac00000000000000000000000000000000003d
:1007bc00000000000000000000000000000000002d
:1007cc00000000000000000000000000000000001d
:1007dc00000000000000000000000000000000000d
:1007ec0000000000000000000000000000000000fd
:1007fc0000000000000000000000000000000000ed
:10080c0000000000ff000000fe000000ff000000e0
:10081c00ff000000ff000000ff0000007c00000053
:10082c00f0000000f0000000f0000000f0000000fc
:10083c00f0000000f0000000f0000000f0000000ec
:10084c00f0000000f0000000f0000000f0000000dc
:10085c00f000000000000000f8000000f8000000ac
:10086c00f00000000000000000000000f800000094
:10087c00f800000000000000000000000000000074
:10088c0000000000c0000000f00000007800000034
:10089c00780000007800000078000000780000006c
:1008ac00000000000000000000000000f800000044
:1008bc00f00000000000000000000000000000003c
:1008cc00f8000000f8000000c0000000000000006c
:1008dc0000000000c0000000f8000000f80000005c
:1008ec00000000000000000000000000f800000004
:1008fc00f8000000000000000000000000000000f4
:10090c00f8000000000000000000000000000000e3
:10091c00000000000000000000000000f0000000db
:10092c00f8000000f8000000c0000000000000000b
:10093c0000000000000000000000000000000000ab
:10094c00f8000000f8000000c000000000000000eb
:10095c000000000000000000f8000000f80000009b
:10096c0000000000000000000000000080000000fb
:10097c00f0000000f000000078000000780000009b
:10098c00780000007800000000000000000000006b
:10099c0000000000f8000000f8000000f800000063
:1009ac00c00000000000000000000000f800000083
:1009bc00f800000000000000000000000000000033
:1009cc00000000000000000000000000000000001b
:1009dc00000000000000000000000000000000000b
:1009ec0000000000000000000000000000000000fb
:1009fc0000000000000000000000000000000000eb
:100a0c0000000000070000000b0000001f000000a9
:100a1c001f000000170000000b0000000100000088
:100a2c00000000000000000080000000c00000007a
:100a3c00e0000000f0000000f0000000f0000000fa
:100a4c00f0000000f0000000f0000000f0000000da
:100a5c00e000000000000000ff00000001000000aa
:100a6c0007000000f8000000c0000000ff000000bc
:100a7c00ff0000000000000000000000000000006b
:100a8c0000000000ff00000070000000700000007b
:100a9c00700000007000000070000000700000008a
:100aac000000000000000000000000000f0000002b
:100abc00ff000000f800000000000000ff00000034
:100acc007f00000003000000ff000000e0000000b9
:100adc0000000000ff0000003f00000003000000c9
:100aec00000000000000000000000000ff000000fb
:100afc00ff0000007800000070000000780000008b
:100b0c00ff000000000000000000000000000000da
:100b1c000000000000000000c0000000bf0000004a
:100b2c008f00000081000000ff000000f8000000b2
:100b3c0000000000000000000000000000000000a9
:100b4c000f0000003f000000ff000000000000004c
:100b5c00e0000000f80000000f00000001000000a1
:100b6c000000000000000000f8000000ff00000082
:100b7c007900000078000000700000007000000098
:100b8c007000000070000000000000000000000079
:100b9c0000000000ff000000ff000000ff0000004c
:100bac001f000000f0000000e0000000ff0000004b
:100bbc00ff0000000000000000000000000000002a
:100bcc000000000000000000000000000000000019
:100bdc000000000000000000000000000000000009
:100bec0000000000c0000000f8000000fe00000043
:100bfc00ff000000ff000000f8000000d000000023
:100c0c0000000000000000000000000000000000d8
:100c1c00000000000000000000000000c000000008
:100c2c00b80000003c0000000700000003000000ba
:100c3c0080000000f0000000f0000000f000000058
:100c4c00f0000000f0000000f0000000f0000000d8
:100c5c00e000000000000000ff00000000000000a9
:100c6c0000000000030000003f000000ff00000037
:100c7c00ff00000000000000000000000000000069
:100c8c00000000001f00000078000000f0000000d1
:100c9c00f0000000f0000000f0000000f000000088
:100cac000000000000000000000000000000000038
:100cbc0003000000ff000000ff0000007f000000a8
:100ccc0000000000000000001f000000ff000000fa
:100cdc00fe0000000f0000000000000000000000fb
:100cec00000000000000000000000000ff000000f9
:100cfc00ff000000000000000000000000000000e9
:100d0c00ff000000000000000000000000000000d8
:100d1c0000000000f8000000ff00000007000000c9
:100d2c000700000007000000070000003f00000063
:100d3c00ff00000080000000000000000000000028
:100d4c00000000000000000001000000ff00000097
:100d5c00ff0000003f000000000000000000000049
:100d6c000000000000000000010000000f00000067
:100d7c007c00000078000000f0000000f000000093
:100d8c00f0000000f0000000000000000000000077
:100d9c0000000000ff000000ff000000ff0000004a
:100dac0000000000070000001f000000ff00000012
:100dbc00ff00000000000000000000000000000028
:100dcc000000000000000000000000000000000017
:100ddc000000000000000000000000000000000007
:100dec00000000000e0000003f000000ff000000ab
:100dfc00ff000000ff0000007f0000001b0000004f
:100e0c000e0000000e0000000e0000000e0000009e
:100e1c000e0000000e0000000f0000000300000098
:100e2c000000000000000000e00000007c0000005a
:100e3c000f00000000000000000000000000000097
:100e4c000000000000000000000000000000000096
:100e5c000000000000000000f0000000f0000000a6
:100e6c00f0000000f0000000e0000000e0000000d6
:100e7c0080000000000000000000000000000000e6
:100e8c0000000000f0000000000000000000000066
:100e9c00000000000000000080000000c000000006
:100eac00f0000000f0000000f0000000f000000076
:100ebc00f0000000f0000000000000000000000046
:100ecc000000000000000000f0000000f000000036
:100edc00f0000000f0000000f0000000f000000046
:100eec00e0000000c0000000000000000000000056
:100efc000000000000000000f000000000000000f6
:100f0c0000000000000000000000000000000000d5
:100f1c0000000000000000000000000000000000c5
:100f2c00c0000000f0000000f00000000000000015
:100f3c0000000000000000000000000000000000a5
:100f4c00f0000000f0000000f000000000000000c5
:100f5c000000000080000000f000000070000000a5
:100f6c000000000000000000000000000000000075
:100f7c000000000000000000000000000000000065
:100f8c000000000000000000000000000000000055
:100f9c000000000000000000000000000000000045
:100fac000000000000000000000000000000000035
:100fbc000000000000000000000000000000000025
:100fcc000000000000000000e0000000f400000041
:100fdc00fe000000ff000000fe000000fc0000000e
:100fec008000000000000000000000000000000075
:100ffc0001000000010000000000000000000000e3
:10100c0000000000000000000000000000000000d4
:10101c000000000000000000c0000000f000000014
:10102c002e0000001d000000000000000000000069
:10103c0000000000000000000000000000000000a4
:10104c000000000000000000000000000000000094
:10105c000000000000000000ff0000000000000085
:10106c00000000000000000000000000070000006d
:10107c00ff00000000000000000000000000000065
:10108c0000000000ff000000000000000000000055
:10109c0000000000000000003f0000007f00000086
:1010ac00e0000000e0000000e0000000e0000000b4
:1010bc00e0000000e0000000000000000000000064
:1010cc000000000000000000ff000000ff00000016
:1010dc00c0000000c0000000c0000000c000000004
:1010ec00ff000000ff0000000000000000000000f6
:1010fc000000000000000000ff00000000000000e5
:10110c0000000000000000000000000000000000d3
:10111c00000000000000000000000000fe000000c5
:10112c00ff000000070000003f000000fe00000070
:10113c00e0000000000000000000000000000000c3
:10114c00000000000300000007000000f800000091
:10115c00fe0000003f000000000000000000000046
:10116c000000000000000000000000000000000073
:10117c000000000000000000000000000000000063
:10118c000000000000000000000000000000000053
:10119c000000000000000000000000000000000043
:1011ac000000000000000000000000000000000033
:1011bc000000000000000000000000000000000023
:1011cc0000000000000000000f0000007f00000085
:1011dc00ff000000ff000000ff0000003f000000c7
:1011ec000f0000000f0000000f0000000f000000b7
:1011fc000f0000000f0000000f0000000f000000a7
:10120c000f0000000f0000000f0000000f00000096
:10121c000b0000000f0000000300000001000000a4
:10122c0000000000000000000000000000000000b2
:10123c0000000000000000000000000000000000a2
:10124c000000000000000000000000000000000092
:10125c000000000000000000ff000000e0000000a3
:10126c00e0000000e0000000e0000000fc000000d6
:10127c003f00000000000000000000000000000023
:10128c0000000000ff000000000000000000000053
:10129c000000000000000000e0000000e000000082
:1012ac00e0000000e0000000e0000000e1000000b1
:1012bc00f1000000ff000000000000000000000032
:1012cc000000000000000000ff000000ff00000014
:1012dc0003000000030000000300000003000000f6
:1012ec0001000000000000000000000000000000f1
:1012fc000000000000000000ff000000e000000003
:10130c00e0000000e0000000e00000000000000031
:10131c000000000080000000f80000000f0000003a
:10132c000f0000000f0000000f0000000f00000075
:10133c00ff000000e00000000000000000000000c2
:10134c00000000000000000000000000ff00000092
:10135c00ff00000000000000000000000000000082
:10136c000000000000000000000000000000000071
:10137c000000000000000000000000000000000061
:10138c000000000000000000000000000000000051
:10139c000000000000000000000000000000000041
:1013ac000000000000000000000000000000000031
:1013bc000000000000000000000000000000000021
:1013cc000000000000000000000000000000000011
:1013dc000000000000000000000000000000000001
:1013ec0000000000000000000000000000000000f1
:1013fc0000000000000000000000000000000000e1
:10140c0000000000000000000000000000000000d0
:10141c0000000000000000000000000000000000c0
:10142c0000000000000000000000000000000000b0
:10143c0000000000000000000000000000000000a0
:10144c000000000000000000000000000000000090
:10145c00000000000000000001000000010000007e
:10146c00010000000100000001000000000000006d
:10147c000000000000000000000000000000000060
:10148c00000000000100000000000000000000004f
:10149c00000000000000000000000000010000003f
:1014ac00010000000100000001000000010000002c
:1014bc00010000000000000000000000000000001f
:1014cc00000000000000000001000000010000000e
:1014dc000000000000000000000000000000000000
:1014ec0000000000000000000000000000000000f0
:1014fc0000000000000000000000000001000000df
:10150c0001000000010000000100000000000000cc
:10151c0000000000010000000100000000000000bd
:10152c0000000000000000000000000000000000af
:10153c00010000000100000000000000000000009d
:10154c00000000000000000000000000010000008e
:10155c00000000000000000000000000000000007f
:10156c00000000000000000000000000000000006f
:10157c00000000000000000000000000000000005f
:10158c00000000000000000000000000000000004f
:10159c00000000000000000000000000000000003f
:1015ac00000000000000000000000000000000002f
:1015bc00000000000000000000000000000000001f
:020000040000fa
:1015cc0000080000000e00000200000000000000f7
:1015dc0000000000000000000000000000000000ff
:1015ec0000000000000000000000000000000000ef
:1015fc00000000000000ff00ffffff00ffffff00e6
:10160c00ffffff00ffffff00ffffff00ffffff00da
:10161c00ffffff00ffffff00ffffff00ffffff00ca
:10162c00ff000000000000000000000000000000af
:10163c00000000000000000000000000000000009e
:10164c00000000000000000000000000000000008e
:10165c00000000000000000000000000000000007e
:10166c00000000000000000000000000000000006e
:10167c00000000000000000000000000000000005e
:10168c00000000000000000000000000ffffff0051
:10169c00ffffff00ffff0000000000000000000043
:1016ac00000000000000000000000000000000002e
:1016bc00000000000000ff00ffffff00ffffff0025
:1016cc00ff0000000000000000000000000000000f
:1016dc0000000000000000000000000000000000fe
:1016ec0000ffff00ffffff00ffffff0000000000f6
:1016fc0000000000000000000000000000000000de
:10170c00000000000000000000000000ffffff00d0
:10171c00ffffff00ffff00000000000000000000c2
:10172c0000000000000000000000000000000000ad
:10173c00000000000000000000000000000000009d
:10174c00000000000000000000000000000000008d
:10175c00000000000000000000000000000000007d
:10176c00000000000000000000000000000000006d
:10177c00000000000000ff00ffffff00ffffff0064
:10178c00ffffff00ffffff00ffffff00ffffff0059
:10179c00ffffff00ffffff00ffffff00ffffff0049
:1017ac00ff0000000000000000000000000000002e
:1017bc00000000000000000000000000000000001d
:1017cc00000000000000000000000000000000000d
:1017dc00000000000000ff00ffffff00ffffff0004
:1017ec00ff000000000000000000000000000000ee
:1017fc0000000000000000000000000000000000dd
:10180c0000ffff00ffffff00ffffff0000000000d4
:10181c0000000000000000000000000000000000bc
:10182c00000000000000000000000000ffffff00af
:10183c00ffffff00ffff00000000000000000000a1
:10184c00000000000000000000000000000000008c
:10185c00000000000000ff00ffffff00ffffff0083
:10186c00ff0000000000000000000000000000006d
:10187c00000000000000ff00ffffff00ffffff0063
:10188c00ff0000000000000000000000000000004d
:10189c00000000000000000000000000000000003c
:1018ac0000ffff00ffffff00ffffff00ffffff0037
:1018bc00ffffff00ffffff00ffffff00ffffff0028
:1018cc00ff0000000000000000000000000000000d
:1018dc0000000000000000000000000000000000fc
:1018ec0000000000000000000000000000000000ec
:1018fc0000000000000000000000000000000000dc
:10190c0000000000000000000000000000000000cb
:10191c0000000000000000000000000000000000bb
:10192c00000000000000000000000000ffffff00ae
:10193c00ffffff00ffffff00ffffff00ffffff00a7
:10194c00ff0000000000000000000000000000008c
:10195c00000000000000ff00ffffff00ffffff0082
:10196c00ff0000000000000000000000000000006c
:10197c00000000000000000000000000000000005b
:10198c0000ffff00ffffff00ffffff000000000053
:10199c00000000000000000000000000000000003b
:1019ac00000000000000000000000000000000002b
:1019bc00000000000000000000000000000000001b
:1019cc00000000000000000000000000000000000b
:1019dc0000000000000000000000000000000000fb
:1019ec0000000000000000000000000000000000eb
:1019fc00000000000000ff00ffffff00ffffff00e2
:101a0c00ffffff00ffffff00ffffff00ffffff00d6
:101a1c00ffffff00ffff00000000000000000000bf
:101a2c0000000000000000000000000000000000aa
:101a3c00000000000000ff00ffffff00ffffff00a1
:101a4c00ff0000000000000000000000000000008b
:101a5c00000000000000000000000000000000007a
:101a6c00000000000000000000000000000000006a
:101a7c00000000000000000000000000000000005a
:101a8c0000ffff00ffffff00ffffff000000000052
:101a9c00000000000000000000000000000000003a
:101aac00000000000000000000000000ffffff002d
:101abc00ffffff00ffff000000000000000000001f
:101acc00000000000000000000000000ffffff000d
:101adc00ffffff00ffffff00ffffff00ffffff0006
:101aec00ff000000000000000000000000000000eb
:101afc0000000000000000000000000000000000da
:101b0c0000000000000000000000000000000000c9
:101b1c0000000000000000000000000000000000b9
:101b2c0000000000000000000000000000000000a9
:101b3c00000000000000ff00ffffff00ffffff00a0
:101b4c00ff0000000000000000000000ffffff008d
:101b5c00ffffff00ffffff00ffffff00ffffff0085
:101b6c00ffffff00ffffff00ffffff000000000072
:101b7c000000000000000000000000000000000059
:101b8c000000000000000000000000000000000049
:101b9c000000000000000000000000000000000039
:101bac000000000000000000000000000000000029
:101bbc000000000000000000000000000000000019
:101bcc000000000000000000000000000000000009
:101bdc00000000000000ff00ffffff00ffffff0000
:101bec00ff000000000000000000000000000000ea
:101bfc0000000000000000000000000000000000d9
:101c0c0000ffff00ffffff00ffffff0000000000d0
:101c1c0000000000000000000000000000000000b8
:101c2c00000000000000000000000000ffffff00ab
:101c3c00ffffff00ffffff00ffffff00ffffff00a4
:101c4c00ff00000000000000000000000000000089
:101c5c000000000000000000000000000000000078
:101c6c000000000000000000000000000000000068
:101c7c000000000000000000000000000000000058
:101c8c000000000000000000000000000000000048
:101c9c000000000000000000000000000000000038
:101cac0000ffff00ffffff00ffffff00ffffff0033
:101cbc00ffffff00ffffff00ffffff00ffffff0024
:101ccc00ff0000000000000000000000ffffff000c
:101cdc00ffffff00ffff00000000000000000000fd
:101cec0000000000000000000000000000000000e8
:101cfc0000000000000000000000000000000000d8
:101d0c0000000000000000000000000000000000c7
:101d1c0000000000000000000000000000000000b7
:101d2c0000ffff00ffffff00ffffff00ffffff00b2
:101d3c00ffffff00ffff000000000000000000009c
:101d4c000000000000000000000000000000000087
:101d5c00000000000000ff00ffffff00ffffff007e
:101d6c00ff00000000000000000000000000000068
:101d7c000000000000000000000000000000000057
:101d8c0000ffff00ffffff00ffffff00000000004f
:101d9c000000000000000000000000000000000037
:101dac000000000000000000000000000000000027
:101dbc000000000000000000000000000000000017
:101dcc00000000000000000000000000ffffff000a
:101ddc00ffffff00ffffff00ffffff00ffffff0003
:101dec00ff000000000000000000000000000000e8
:101dfc00000000000000ff00ffffff00ffffff00de
:101e0c00ffffff00ffffff00ffffff0000000000cf
:101e1c0000000000000000000000000000000000b6
:101e2c0000000000000000000000000000000000a6
:101e3c000000000000000000000000000000000096
:101e4c000000000000000000000000000000000086
:101e5c000000000000000000000000000000000076
:101e6c000000000000000000000000000000000066
:101e7c00000000000000ff00ffffff00ffffff005d
:101e8c00ffffff00ffffff00ffffff00000000004f
:101e9c000000000000000000000000000000000036
:101eac0000ffff00ffffff00ffffff00ffffff0031
:101ebc00ffffff00ffff000000000000000000001b
:101ecc000000000000000000000000000000000006
:101edc0000000000000000000000000000000000f6
:101eec0000000000000000000000000000000000e6
:101efc0000000000000000000000000000000000d6
:101f0c0000000000000000000000000000000000c5
:101f1c0000000000000000000000000000000000b5
:101f2c0000ffff00ffffff00ffffff00ffffff00b0
:101f3c00ffffff00ffff000000000000000000009a
:101f4c00000000000000000000000000ffffff0088
:101f5c00ffffff00ffffff00ffffff00ffffff0081
:101f6c00ff00000000000000000000000000000066
:101f7c000000000000000000000000000000000055
:101f8c000000000000000000000000000000000045
:101f9c000000000000000000000000000000000035
:101fac000000000000000000000000000000000025
:101fbc000000000000000000000000000000000015
:101fcc00000000000000000000000000ffffff0008
:101fdc00ffffff00ffffff00ffffff00ffffff0001
:101fec00ff000000000000000000000000000000e6
:101ffc00000000000000ff00ffffff00ffffff00dc
:10200c00ffffff00ffffff00ffffff0000000000cd
:10201c0000000000000000000000000000000000b4
:10202c0000000000000000000000000000000000a4
:10203c000000000000000000000000000000000094
:10204c000000000000000000000000000000000084
:10205c000000000000000000000000000000000074
:10206c000000000000000000000000000000000064
:10207c000000000000000000000000000000000054
:10208c000000000000000000000000000000000044
:10209c000000000000000000000000000000000034
:1020ac0000ffff00ffffff00ffffff00ffffff002f
:1020bc00ffffff00ffffff00ffffff00ffffff0020
:1020cc00ff00000000000000000000000000000005
:1020dc00000000000000ff00ffffff00ffffff00fb
:1020ec00ff000000000000000000000000000000e5
:1020fc0000000000000000000000000000000000d4
:10210c0000000000000000000000000000000000c3
:10211c0000000000000000000000000000000000b3
:10212c00000000000000000000000000ffffff00a6
:10213c00ffffff00ffff0000000000000000000098
:10214c00000000000000000000000000ffffff0086
:10215c00ffffff00ffffff00ffffff00ffffff007f
:10216c00ff00000000000000000000000000000064
:10217c000000000000000000000000000000000053
:10218c0000ffff00ffffff00ffffff00000000004b
:10219c000000000000000000000000000000000033
:1021ac000000000000000000000000000000000023
:1021bc000000000000000000000000000000000013
:1021cc000000000000000000000000000000000003
:1021dc00000000000000ff00ffffff00ffffff00fa
:1021ec00ff000000000000000000000000000000e4
:1021fc00000000000000ff00ffffff00ffffff00da
:10220c00ffffff00ffffff00ffffff00ffffff00ce
:10221c00ffffff00ffff00000000000000000000b7
:10222c0000000000000000000000000000000000a2
:10223c000000000000000000000000000000000092
:10224c000000000000000000000000000000000082
:10225c000000000000000000000000000000000072
:10226c000000000000000000000000000000000062
:10227c000000000000000000000000000000000052
:10228c0000ffff00ffffff00ffffff00000000004a
:10229c000000000000000000000000000000000032
:1022ac00000000000000000000000000ffffff0025
:1022bc00ffffff00ffffff00ffffff00ffffff001e
:1022cc00ff00000000000000000000000000000003
:1022dc00000000000000ff00ffffff00ffffff00f9
:1022ec00ff000000000000000000000000000000e3
:1022fc0000000000000000000000000000000000d2
:10230c0000000000000000000000000000000000c1
:10231c0000000000000000000000000000000000b1
:10232c00000000000000000000000000ffffff00a4
:10233c00ffffff00ffffff00ffffff00ffffff009d
:10234c00ff0000000000000000000000ffffff0085
:10235c00ffffff00ffffff00ffffff00ffffff007d
:10236c00ff00000000000000000000000000000062
:10237c000000000000000000000000000000000051
:10238c000000000000000000000000000000000041
:10239c000000000000000000000000000000000031
:1023ac000000000000000000000000000000000021
:1023bc000000000000000000000000000000000011
:1023cc000000000000000000000000000000000001
:1023dc00000000000000ff00ffffff00ffffff00f8
:1023ec00ff000000000000000000000000000000e2
:1023fc0000000000000000000000000000000000d1
:10240c0000ffff00ffffff00ffffff00ffffff00cb
:10241c00ffffff00ffff00000000000000000000b5
:10242c0000000000000000000000000000000000a0
:10243c00000000000000ff00ffffff00ffffff0097
:10244c00ff00000000000000000000000000000081
:10245c000000000000000000000000000000000070
:10246c000000000000000000000000000000000060
:10247c000000000000000000000000000000000050
:10248c000000000000000000000000000000000040
:10249c000000000000000000000000000000000030
:1024ac00000000000000000000000000ffffff0023
:1024bc00ffffff00ffffff00ffffff00ffffff001c
:1024cc00ff0000000000000000000000ffffff0004
:1024dc00ffffff00ffffff00ffffff00ffffff00fc
:1024ec00ff000000000000000000000000000000e1
:1024fc0000000000000000000000000000000000d0
:10250c0000000000000000000000000000000000bf
:10251c0000000000000000000000000000000000af
:10252c0000ffff00ffffff00ffffff0000000000a7
:10253c00000000000000000000000000000000008f
:10254c00000000000000000000000000ffffff0082
:10255c00ffffff00ffffff00ffffff00ffffff007b
:10256c00ff00000000000000000000000000000060
:10257c00000000000000000000000000000000004f
:10258c0000ffff00ffffff00ffffff000000000047
:10259c00000000000000000000000000000000002f
:1025ac00000000000000000000000000000000001f
:1025bc00000000000000000000000000000000000f
:1025cc00000000000000000000000000ffffff0002
:1025dc00ffffff00ffffff00ffffff00ffffff00fb
:1025ec00ff000000000000000000000000000000e0
:1025fc0000000000000000000000000000000000cf
:10260c0000ffff00ffffff00ffffff00ffffff00c9
:10261c00ffffff00ffff00000000000000000000b3
:10262c00000000000000000000000000000000009e
:10263c00000000000000000000000000000000008e
:10264c00000000000000000000000000000000007e
:10265c00000000000000000000000000000000006e
:10266c00000000000000000000000000000000005e
:10267c00000000000000000000000000000000004e
:10268c00000000000000000000000000ffffff0041
:10269c00ffffff00ffff0000000000000000000033
:1026ac00000000000000000000000000ffffff0021
:1026bc00ffffff00ffffff00ffffff00ffffff001a
:1026cc00ff000000000000000000000000000000ff
:1026dc00000000000000ff00ffffff00ffffff00f5
:1026ec00ff000000000000000000000000000000df
:1026fc0000000000000000000000000000000000ce
:10270c0000000000000000000000000000000000bd
:10271c0000000000000000000000000000000000ad
:10272c00000000000000000000000000000000009d
:10273c00000000000000000000000000000000008d
:10274c00000000000000000000000000ffffff0080
:10275c00ffffff00ffffff00ffffff00ffffff0079
:10276c00ff0000000000000000000000000000005e
:10277c00000000000000000000000000000000004d
:10278c0000ffff00ffffff00ffffff00ffffff0048
:10279c00ffffff00ffff0000000000000000000032
:1027ac00000000000000000000000000000000001d
:1027bc00000000000000000000000000000000000d
:1027cc0000000000000000000000000000000000fd
:1027dc00000000000000ff00ffffff00ffffff00f4
:1027ec00ff000000000000000000000000000000de
:1027fc00000000000000ff00ffffff00ffffff00d4
:10280c00ffffff00ffffff00ffffff0000000000c5
:10281c0000000000000000000000000000000000ac
:10282c0000ffff00ffffff00ffffff0000000000a4
:10283c00000000000000000000000000000000008c
:10284c00000000000000000000000000000000007c
:10285c00000000000000000000000000000000006c
:10286c00000000000000000000000000000000005c
:0c287c0000000000000000000000000050
:020000040000fa
:102888000200fa00000f78000080eb006016880054
:10289800611680001e0078000080600060168800c5
:1028a800cd42a900cd62a900cd02a900cd82a80021
:1028b800cd82a900cd02a800cd62a8000080fa0050
:1028c800000006000200fa00000f78000080eb000c
:1028d80060168800611680001e0078000080600085
:1028e80060168800cd42a800cd62a900cd02a900db
:1028f800cd82a800cd82a900cd02a800cd62a80093
:102908000080fa00000006000000fa00cd22a900ad
:1029180005e1a800000000002004800068006000b5
:102928000000e000fcff3200cd22a80005e1a8006d
:102938000000000020048000680060000000e00043
:10294800fcff3200cd02a800cd82a800cd62a8000d
:10295800cd42a80020fa2f00c9ff070000fa2f0077
:10296800c7ff070080fc2f00c5ff070040fa2f00b3
:10297800c3ff070000f42f00c1ff070050f22f002b
:10298800bfff070010f82f00bdff070000f12f0060
:10299800bbff0700f0f22f00b9ff0700f0fa2f0085
:1029a800b7ff07000080fa00000006000600fa00e2
:1029b80000fb2f002007980000f42f00b0ff07004d
:1029c8000000eb00000f7800160037002e00900082
:1029d800abff070000f12f00a9ff070000f02f0050
:1029e800a7ff07000000eb0010079800050037005c
:1029f80000f02f00b3ff07001e0090000000e80061
:102a0800100798009e009000f0072000808f50006b
:102a1800f7ff36002e0090000000e800200798001d
:102a28001e0fe8001e007800e70f5000e7ff360091
:102a38000080fa00000006000808fa00e8004700d5
:102a4800622e2800ff030900b21878000000eb008e
:102a58002007980000fb2f003007980000f42f0093
:102a680087ff07000000eb00000f78001e0037000a
:102a78003e00900082ff070000f12f0080ff070052
:102a880000f02f007eff07000000eb001007980001
:102a98000d0037002e0090000000400000004700a5
:102aa800c000900000f02f000100700085ff0700b3
:102ab8002e0090000000e800200798001e009000fb
:102ac8000000e800100798009e009000f007200022
:102ad800808f5000efff36003e0090000000e800b5
:102ae800300798001e0fe8001e007800e70f50001e
:102af800dfff36000080fa00000006000400fa003c
:102b0800100798000000eb00000f7800060037005f
:102b18001e0078009e009000008040008040eb007e
:102b2800014878001e0fe800f03f20009e00780062
:102b3800808f5000f6ff34000080fa000000060085
:102b48000600fa0010079800210798000000eb0023
:102b5800000f7800090037001e007800ae009000d2
:102b6800008040009e0078001e0190008100410016
:102b780091407800014878001e0fe800f03f2000df
:102b88009e007800808f5000f3ff34000080fa0028
:102b9800000006000a00fa00400798000000eb0059
:102ba8002007980000fb2f003007980000f42f0042
:102bb80033ff07000000eb00000f78001f0037000c
:102bc8003e0090002eff070000f12f002cff0700a9
:102bd80000f02f002aff07000000eb001007980004
:102be8000e003700ce0090002e00900000804000bc
:102bf800104078008080fb0000f02f00010070007a
:102c080030ff07002e0090000000e8002007980021
:102c18001e0090000000e800100798009e00900039
:102c2800f0072000808f5000eeff36003e00900035
:102c38000000e800300798001e0fe8001e0078002a
:102c4800e70f5000deff36000080fa0000000600a3
:102c58000e08fa00e30007002bff070053ff0700e8
:102c680066004700a5ff07006040200000004700fd
:102c7800a2ff0700608020000000470081052000b7
:102c88000108780060802000000047004100200013
:102c98001100980060802000000047008000eb00d1
:102ca80021009800808b2800100888008460a90003
:102cb80021058000f0ff28000080600000e0a000ef
:102cc800200588009460a8000003200020088800e0
:102cd8000000eb00000f78001e007800e30f5000a2
:102ce8002e003200e30f500007003c00e10f5000b7
:102cf80016003200e10f50001e003c000000e0000a
:102d0800080032004d003700e50f50003700320050
:102d1800e50f50002b003500e60f50003d00320053
:102d28004600370001802000608020000000470036
:102d3800200090004700dd00808040006080200077
:102d480000004700310098003c00370001a0200037
:102d58006080200000004700200090004700dd0050
:102d6800808040006080200000004700310098000b
:102d78003200370001202100608020000000470059
:102d8800200090004700dd00808040006080200027
:102d980000004700310098002800370001e02000bb
:102da8006080200000004700200090004700dd0000
:102db80080804000608020000000470031009800bb
:102dc8001e00370001c0200060802000000047007e
:102dd800200090004700dd008080400060802000d7
:102de800000047003100980014003700010021005e
:102df8006080200000004700200090004700dd00b0
:102e0800808040006080200000004700310098006a
:102e18000a003700014021006080200000004700c0
:102e2800200090004700dd00808040006080200086
:102e3800000047003100980000000000608020007a
:102e48000000470020009000e30f50000c003a00fb
:102e580060802000000047008000eb0021009800ff
:102e68001e007800e60f500002003a00a0ff2f0075
:102e780001003700100020001e0f40000700370037
:102e88006080200000004700200090008000e800db
:102e9800608020000000470021009800e6004700fd
:102ea800604020000000470025ff0700e6004700bb
:102eb8006080200000004700010278005001be0039
:102ec8004000be00170007006600470031ff0700fa
:102ed8000000eb00100798000d0037000000eb0021
:102ee80020079800030037002e0090000000e8003b
:102ef80020079800ae009000703e2000808f5000a0
:102f0800f9ff34001e0090000000e8001007980048
:102f18009e009000703e2000808f5000efff34002c
:102f28006dff37000e00fa0020079800310798005f
:102f38004207980053079800640798000000eb00c8
:102f4800000f7800220037000000eb0010079800ff
:102f58001b003700de0090001e0090004500dd00d9
:102f68001e00400000804000104078000004e0008f
:102f780010003200be0090001e009000008040004b
:102f8800c700dd002e0090001e00400000804000b9
:102f9800ee009000008040005e0190009e009000ce
:102fa800c508dd009e804000810041009140780006
:102fb800014878001e0090000000e8001007980003
:102fc8001e009000e30f5000e2ff36001e0fe800dd
:102fd8001e007800ff0f5000dbff36000080fa006b
:102fe800000006000000fa00213a8000f08f2f0050
:102ff80000806000203a8800f0ff290060198800ee
:10300800c822ef00f00f2000001688006840a800d2
:103018006860a8006bc0a8006ba0a800801a2600f2
:10302800100888008460a90021058000f0ff2800ae
:103038000080600000e0a000200588009460a800df
:1030480000022000200888000080fa000000060026
:020000040000fa
:020000040001f9
:0457f8000ff90000a5
:020000040000fa
:020000040001f9
:0457fc007f3f0000eb
:00000001FF
