:020000040000fa
:080000000002040000000000f2
:020000040000fa
:0400080036030000bb
:020000040000fa
:04000c0036030000b7
:020000040000fa
:0400100036030000b3
:020000040000fa
:0400140036030000af
:020000040000fa
:0400180036030000ab
:020000040000fa
:04001c0036030000a7
:020000040000fa
:0400200036030000a3
:020000040000fa
:04002400360300009f
:020000040000fa
:04002800360300009b
:020000040000fa
:04002c00e0020000ee
:020000040000fa
:040030003603000093
:020000040000fa
:04003400c8020000fe
:020000040000fa
:04003800360300008b
:020000040000fa
:04003c003603000087
:020000040000fa
:040040003603000083
:020000040000fa
:04004400360300007f
:020000040000fa
:04004800220300008f
:020000040000fa
:04004c003603000077
:020000040000fa
:040050003603000073
:020000040000fa
:04005400360300006f
:020000040000fa
:04005800360300006b
:020000040000fa
:04005c003603000067
:020000040000fa
:040060003603000063
:020000040000fa
:04006400360300005f
:020000040000fa
:04006800360300005b
:020000040000fa
:04006c003603000057
:020000040000fa
:040070003603000053
:020000040000fa
:04007400360300004f
:020000040000fa
:04007800360300004b
:020000040000fa
:04007c003603000047
:020000040000fa
:040080003603000043
:020000040000fa
:04008400360300003f
:020000040000fa
:04008800360300003b
:020000040000fa
:04008c003603000037
:020000040000fa
:040090003603000033
:020000040000fa
:04009400360300002f
:020000040000fa
:04009800360300002b
:020000040000fa
:04009c003603000027
:020000040000fa
:0400a0003603000023
:020000040000fa
:0400a400360300001f
:020000040000fa
:0400a800360300001b
:020000040000fa
:0400ac003603000017
:020000040000fa
:0400b0003603000013
:020000040000fa
:0400b400360300000f
:020000040000fa
:0400b800360300000b
:020000040000fa
:0400bc003603000007
:020000040000fa
:0400c0003603000003
:020000040000fa
:0400c40036030000ff
:020000040000fa
:0400c80036030000fb
:020000040000fa
:0400cc0036030000f7
:020000040000fa
:0400d00036030000f3
:020000040000fa
:0400d40036030000ef
:020000040000fa
:0400d80036030000eb
:020000040000fa
:0400dc0036030000e7
:020000040000fa
:0400e00036030000e3
:020000040000fa
:0400e40036030000df
:020000040000fa
:0400e80036030000db
:020000040000fa
:0400ec0036030000d7
:020000040000fa
:0400f00036030000d3
:020000040000fa
:0400f40036030000cf
:020000040000fa
:0400f80036030000cb
:020000040000fa
:0400fc0036030000c7
:020000040000fa
:0401000036030000c2
:020000040000fa
:0401040036030000be
:020000040000fa
:0401080036030000ba
:020000040000fa
:04010c0036030000b6
:020000040000fa
:0401100036030000b2
:020000040000fa
:0401140036030000ae
:020000040000fa
:0401180036030000aa
:020000040000fa
:04011c0036030000a6
:020000040000fa
:0401200036030000a2
:020000040000fa
:04012400360300009e
:020000040000fa
:04012800360300009a
:020000040000fa
:04012c003603000096
:020000040000fa
:040130003603000092
:020000040000fa
:04013400360300008e
:020000040000fa
:04013800360300008a
:020000040000fa
:04013c003603000086
:020000040000fa
:040140003603000082
:020000040000fa
:04014400360300007e
:020000040000fa
:04014800360300007a
:020000040000fa
:0402080036030000b9
:020000040000fa
:04020c0036030000b5
:020000040000fa
:0402100036030000b1
:020000040000fa
:0402140036030000ad
:020000040000fa
:0402180036030000a9
:020000040000fa
:04021c0036030000a5
:020000040000fa
:0402200036030000a1
:020000040000fa
:04022400360300009d
:020000040000fa
:040228003603000099
:020000040000fa
:04022c00e0020000ec
:020000040000fa
:040230003603000091
:020000040000fa
:04023400c8020000fc
:020000040000fa
:040238003603000089
:020000040000fa
:04023c003603000085
:020000040000fa
:040240003603000081
:020000040000fa
:04024400360300007d
:020000040000fa
:04024800220300008d
:020000040000fa
:04024c003603000075
:020000040000fa
:040250003603000071
:020000040000fa
:04025400360300006d
:020000040000fa
:040258003603000069
:020000040000fa
:04025c003603000065
:020000040000fa
:040260003603000061
:020000040000fa
:04026400360300005d
:020000040000fa
:040268003603000059
:020000040000fa
:04026c003603000055
:020000040000fa
:040270003603000051
:020000040000fa
:04027400360300004d
:020000040000fa
:040278003603000049
:020000040000fa
:04027c003603000045
:020000040000fa
:040280003603000041
:020000040000fa
:04028400360300003d
:020000040000fa
:040288003603000039
:020000040000fa
:04028c003603000035
:020000040000fa
:040290003603000031
:020000040000fa
:04029400360300002d
:020000040000fa
:040298003603000029
:020000040000fa
:04029c003603000025
:020000040000fa
:0402a0003603000021
:020000040000fa
:0402a400360300001d
:020000040000fa
:0402a8003603000019
:020000040000fa
:0402ac003603000015
:020000040000fa
:0402b0003603000011
:020000040000fa
:0402b400360300000d
:020000040000fa
:0402b8003603000009
:020000040000fa
:0402bc003603000005
:020000040000fa
:0402c0003603000001
:020000040000fa
:0402c40036030000fd
:020000040000fa
:0402c80036030000f9
:020000040000fa
:0402cc0036030000f5
:020000040000fa
:0402d00036030000f1
:020000040000fa
:0402d40036030000ed
:020000040000fa
:0402d80036030000e9
:020000040000fa
:0402dc0036030000e5
:020000040000fa
:0402e00036030000e1
:020000040000fa
:0402e40036030000dd
:020000040000fa
:0402e80036030000d9
:020000040000fa
:0402ec0036030000d5
:020000040000fa
:0402f00036030000d1
:020000040000fa
:0402f40036030000cd
:020000040000fa
:0402f80036030000c9
:020000040000fa
:0402fc0036030000c5
:020000040000fa
:0403000036030000c0
:020000040000fa
:0403040036030000bc
:020000040000fa
:0403080036030000b8
:020000040000fa
:04030c0036030000b4
:020000040000fa
:0403100036030000b0
:020000040000fa
:0403140036030000ac
:020000040000fa
:0403180036030000a8
:020000040000fa
:04031c0036030000a4
:020000040000fa
:0403200036030000a0
:020000040000fa
:04032400360300009c
:020000040000fa
:040328003603000098
:020000040000fa
:04032c003603000094
:020000040000fa
:040330003603000090
:020000040000fa
:04033400360300008c
:020000040000fa
:040338003603000088
:020000040000fa
:04033c003603000084
:020000040000fa
:040340003603000080
:020000040000fa
:04034400360300007c
:020000040000fa
:040348003603000078
:020000040000fa
:100400000f8020000e7f22000e01880000000000f7
:10041000000020000000e000020032000001200087
:100420002002880014000700920007000000e0008e
:1004300003003a0000002000010020000200370005
:100440000000200001002000810f70000100320038
:1004500014000700000020000000e000020032004d
:100460000000020000000000800302000000000005
:100470000040da000000fe004440a9000000200017
:100480000000e0000300320000002000a00188000e
:100490004440a800000006008a1f78008b1f7800e7
:1004a0000000060091018800800478000000eb0045
:1004b0001a003700e284440032a0b4009905ba0063
:1004c000e284440032a0b4009906ba00e2844400f9
:1004d00032a0b4000006eb00476fde00fd07b2005b
:1004e000636ce10003003a00ebff07000000eb0043
:1004f0000a003700606ce10004003a00005deb0088
:100500008b05e900fdff3e00040037006168e10053
:10051000010032000086eb000b00070019c7ba008b
:100520001905ba000e04e00003003a000a00e000da
:10053000e0ff3a0000000600fe07b2009e018800be
:100540008a047800f5ff3700395dba008b05e900b1
:100550000c003200295dba008b05e900080032006a
:100560000c00e00003003a00e284440032a0b40032
:10057000f5ff370019ddba008b05e900faff3a00f4
:100580008904e800e184440032a0b40000000600c1
:100590003400f800881f780008002000a8018800b7
:1005a0004f0478000000fa0005e1a9008460a9006a
:1005b0000021ef000080fa003400f900004006003e
:1005c000809fbe003400f80000002000a0018800d9
:1005d0000400fa008420a90010168000ef0f5000dc
:1005e00002003200001e2000601688000000eb00b0
:1005f000000f78000b0037000000eb001007980098
:10060000030037001e0090000000e800100798006b
:100610009e009000703e2000808f5000f9ff340053
:100620001e0fe800703e20009e007800808f500072
:10063000f1ff34000080fa003400f9004f00be00e2
:10064000004006003400f800881f780008002000f1
:10065000a80188004f0478000000fa008500a90076
:100660000080fa003400f900004006000040da0083
:080670000000fe00000005007f
:020000040000fa
:100678000200fa00000f78000080eb006016880086
:10068800611680001e0078000080600060168800f7
:10069800cd42a900cd62a900cd02a900cd82a80053
:1006a800cd82a900cd02a800cd62a8000080fa0082
:1006b800000006000200fa00000f78000080eb003e
:1006c80060168800611680001e00780000806000b7
:1006d80060168800cd42a800cd62a900cd02a9000d
:1006e800cd82a800cd82a900cd02a800cd62a800c5
:1006f8000080fa00000006000000fa009460a800dc
:1007080031000700801a2600100888008460a900bc
:1007180021058000f0ff28000080600000e0a000b4
:10072800200588000002200020088800cd22a900aa
:1007380005e1a800000000002004800068006000b7
:100748000000e000fcff3200cd22a80005e1a8006f
:100758000000000020048000680060000000e00045
:10076800fcff3200cd02a800cd82a800cd62a8000f
:10077800cd42a80020fa2f00bdff070000fa2f0085
:10078800bbff070080fc2f00b9ff070040fa2f00cd
:10079800b7ff070000f42f00b5ff070050f22f0045
:1007a800b3ff070010f82f00b1ff070000f12f007a
:1007b800afff0700f0f22f00adff0700f0fa2f009f
:1007c800abff0700ffff37000000fa00213a800066
:1007d800f08f2f0000806000203a8800f0ff290089
:1007e80060198800c822ef00f00f2000001688006a
:1007f8006840a8006860a8006bc0a8006ba0a800ab
:100808000080fa00000006000000fa00113a80009b
:10081800f00b2000008160006004200071052000ba
:100828002374200080497800814978008249780043
:100838007134800000fe2f0000806000f000b300db
:1008480070348800103a8000000178000260a0002f
:10085800600420007105200023742000804978007e
:10086800814978008249780010002000100a880029
:100878008420a90021058000f0f82f000080600086
:100888000060a000200588009420a8000080fa00dd
:10089800000006000000fa0000d027007008880059
:1008a80000002800900888000080fa000000060078
:1008b8000200fa00004f78001e00fb006016880056
:1008c800cd02a9000080fa00000006000200fa002c
:1008d800004f78000080fa00000006000000fa00cf
:0808e8000080fa000000060088
:020000040000fa
:020000040001f9
:0457f8000ff90000a5
:020000040000fa
:020000040001f9
:0457fc007f3f0000eb
:00000001FF
