:020000040000fa
:080000000002040000000000f2
:020000040000fa
:04000800e002000012
:020000040000fa
:04000c00e00200000e
:020000040000fa
:04001000e00200000a
:020000040000fa
:04001400e002000006
:020000040000fa
:04001800e002000002
:020000040000fa
:04001c00e0020000fe
:020000040000fa
:04002000e0020000fa
:020000040000fa
:04002400e0020000f6
:020000040000fa
:04002800e0020000f2
:020000040000fa
:04002c00e0020000ee
:020000040000fa
:04003000e0020000ea
:020000040000fa
:04003400c8020000fe
:020000040000fa
:04003800e0020000e2
:020000040000fa
:04003c00e0020000de
:020000040000fa
:04004000e0020000da
:020000040000fa
:04004400e0020000d6
:020000040000fa
:04004800e0020000d2
:020000040000fa
:04004c00e0020000ce
:020000040000fa
:04005000e0020000ca
:020000040000fa
:04005400e0020000c6
:020000040000fa
:04005800e0020000c2
:020000040000fa
:04005c00e0020000be
:020000040000fa
:04006000e0020000ba
:020000040000fa
:04006400e0020000b6
:020000040000fa
:04006800e0020000b2
:020000040000fa
:04006c00e0020000ae
:020000040000fa
:04007000e0020000aa
:020000040000fa
:04007400e0020000a6
:020000040000fa
:04007800e0020000a2
:020000040000fa
:04007c00e00200009e
:020000040000fa
:04008000e00200009a
:020000040000fa
:04008400e002000096
:020000040000fa
:04008800e002000092
:020000040000fa
:04008c00e00200008e
:020000040000fa
:04009000e00200008a
:020000040000fa
:04009400e002000086
:020000040000fa
:04009800e002000082
:020000040000fa
:04009c00e00200007e
:020000040000fa
:0400a000e00200007a
:020000040000fa
:0400a400e002000076
:020000040000fa
:0400a800e002000072
:020000040000fa
:0400ac00e00200006e
:020000040000fa
:0400b000e00200006a
:020000040000fa
:0400b400e002000066
:020000040000fa
:0400b800e002000062
:020000040000fa
:0400bc00e00200005e
:020000040000fa
:0400c000e00200005a
:020000040000fa
:0400c400e002000056
:020000040000fa
:0400c800e002000052
:020000040000fa
:0400cc00e00200004e
:020000040000fa
:0400d000e00200004a
:020000040000fa
:0400d400e002000046
:020000040000fa
:0400d800e002000042
:020000040000fa
:0400dc00e00200003e
:020000040000fa
:0400e000e00200003a
:020000040000fa
:0400e400e002000036
:020000040000fa
:0400e800e002000032
:020000040000fa
:0400ec00e00200002e
:020000040000fa
:0400f000e00200002a
:020000040000fa
:0400f400e002000026
:020000040000fa
:0400f800e002000022
:020000040000fa
:0400fc00e00200001e
:020000040000fa
:04010000e002000019
:020000040000fa
:04010400e002000015
:020000040000fa
:04010800e002000011
:020000040000fa
:04010c00e00200000d
:020000040000fa
:04011000e002000009
:020000040000fa
:04011400e002000005
:020000040000fa
:04011800e002000001
:020000040000fa
:04011c00e0020000fd
:020000040000fa
:04012000e0020000f9
:020000040000fa
:04012400e0020000f5
:020000040000fa
:04012800e0020000f1
:020000040000fa
:04012c00e0020000ed
:020000040000fa
:04013000e0020000e9
:020000040000fa
:04013400e0020000e5
:020000040000fa
:04013800e0020000e1
:020000040000fa
:04013c00e0020000dd
:020000040000fa
:04014000e0020000d9
:020000040000fa
:04014400e0020000d5
:020000040000fa
:04014800e0020000d1
:020000040000fa
:04020800e002000010
:020000040000fa
:04020c00e00200000c
:020000040000fa
:04021000e002000008
:020000040000fa
:04021400e002000004
:020000040000fa
:04021800e002000000
:020000040000fa
:04021c00e0020000fc
:020000040000fa
:04022000e0020000f8
:020000040000fa
:04022400e0020000f4
:020000040000fa
:04022800e0020000f0
:020000040000fa
:04022c00e0020000ec
:020000040000fa
:04023000e0020000e8
:020000040000fa
:04023400c8020000fc
:020000040000fa
:04023800e0020000e0
:020000040000fa
:04023c00e0020000dc
:020000040000fa
:04024000e0020000d8
:020000040000fa
:04024400e0020000d4
:020000040000fa
:04024800e0020000d0
:020000040000fa
:04024c00e0020000cc
:020000040000fa
:04025000e0020000c8
:020000040000fa
:04025400e0020000c4
:020000040000fa
:04025800e0020000c0
:020000040000fa
:04025c00e0020000bc
:020000040000fa
:04026000e0020000b8
:020000040000fa
:04026400e0020000b4
:020000040000fa
:04026800e0020000b0
:020000040000fa
:04026c00e0020000ac
:020000040000fa
:04027000e0020000a8
:020000040000fa
:04027400e0020000a4
:020000040000fa
:04027800e0020000a0
:020000040000fa
:04027c00e00200009c
:020000040000fa
:04028000e002000098
:020000040000fa
:04028400e002000094
:020000040000fa
:04028800e002000090
:020000040000fa
:04028c00e00200008c
:020000040000fa
:04029000e002000088
:020000040000fa
:04029400e002000084
:020000040000fa
:04029800e002000080
:020000040000fa
:04029c00e00200007c
:020000040000fa
:0402a000e002000078
:020000040000fa
:0402a400e002000074
:020000040000fa
:0402a800e002000070
:020000040000fa
:0402ac00e00200006c
:020000040000fa
:0402b000e002000068
:020000040000fa
:0402b400e002000064
:020000040000fa
:0402b800e002000060
:020000040000fa
:0402bc00e00200005c
:020000040000fa
:0402c000e002000058
:020000040000fa
:0402c400e002000054
:020000040000fa
:0402c800e002000050
:020000040000fa
:0402cc00e00200004c
:020000040000fa
:0402d000e002000048
:020000040000fa
:0402d400e002000044
:020000040000fa
:0402d800e002000040
:020000040000fa
:0402dc00e00200003c
:020000040000fa
:0402e000e002000038
:020000040000fa
:0402e400e002000034
:020000040000fa
:0402e800e002000030
:020000040000fa
:0402ec00e00200002c
:020000040000fa
:0402f000e002000028
:020000040000fa
:0402f400e002000024
:020000040000fa
:0402f800e002000020
:020000040000fa
:0402fc00e00200001c
:020000040000fa
:04030000e002000017
:020000040000fa
:04030400e002000013
:020000040000fa
:04030800e00200000f
:020000040000fa
:04030c00e00200000b
:020000040000fa
:04031000e002000007
:020000040000fa
:04031400e002000003
:020000040000fa
:04031800e0020000ff
:020000040000fa
:04031c00e0020000fb
:020000040000fa
:04032000e0020000f7
:020000040000fa
:04032400e0020000f3
:020000040000fa
:04032800e0020000ef
:020000040000fa
:04032c00e0020000eb
:020000040000fa
:04033000e0020000e7
:020000040000fa
:04033400e0020000e3
:020000040000fa
:04033800e0020000df
:020000040000fa
:04033c00e0020000db
:020000040000fa
:04034000e0020000d7
:020000040000fa
:04034400e0020000d3
:020000040000fa
:04034800e0020000cf
:020000040000fa
:100400000fc020000e7f22000e01880000000000b7
:10041000000020000000e000020032000001200087
:100420002002880014000700670007000000e000b9
:1004300003003a00602e2000010020000200370077
:100440000000200001002000810f70000100320038
:1004500014000700000020000000e000020032004d
:100460000000020000000000be06020000000000c4
:100470000040da000000fe004440a9000000200017
:100480000000e0000300320000002000a00188000e
:100490004440a800000006008a1f78008b1f7800e7
:1004a0000000060091018800800478000000eb0045
:1004b0001a003700e284440032a0b4009905ba0063
:1004c000e284440032a0b4009906ba00e2844400f9
:1004d00032a0b4000006eb00476fde00fd07b2005b
:1004e000636ce10003003a00ebff07000000eb0043
:1004f0000a003700606ce10004003a00005deb0088
:100500008b05e900fdff3e00040037006168e10053
:10051000010032000086eb000b00070019c7ba008b
:100520001905ba000e04e00003003a000a00e000da
:10053000e0ff3a0000000600fe07b2009e018800be
:100540008a047800f5ff3700395dba008b05e900b1
:100550000c003200295dba008b05e900080032006a
:100560000c00e00003003a00e284440032a0b40032
:10057000f5ff370019ddba008b05e900faff3a00f4
:100580008904e800e184440032a0b40000000600c1
:100590003400f800881f780008002000a8018800b7
:1005a0004f0478000000fa0005e1a9008460a9006a
:1005b0000021ef000080fa003400f900004006003e
:0c05c0000040da000000fe000000050012
:020000040000fa
:1005cc000008000000040000020000000000000011
:1005dc00000000000000000000000000000000000f
:1005ec000000000080c0c000c0000000000000003f
:1005fc0000000000000000000000000000000000ef
:10060c0000000000000000000000000000000000de
:10061c0000000000000000000000000000000000ce
:10062c0000000000000000000000000000000000be
:10063c0000000000000000000000000000000000ae
:10064c00000000000000000000000000000000009e
:10065c00000000000000000000000000000000008e
:10066c00000000000000000000000000000000007e
:10067c00000000000000000000000000000000006e
:10068c0000000000000000000000000000fffe0061
:10069c00ffffff00ff7cf000f0f0f000f0f0f00046
:1006ac00f0f0f000f0f0f00000f8f800f0000000be
:1006bc00f8f8000000000000c0f0780078787800ae
:1006cc007800000000f8f00000000000f8f8c0000e
:1006dc000000c000f8f800000000f800f80000006e
:1006ec0000f80000000000000000f000f8f8c00066
:1006fc00000000000000f800f8c000000000f80046
:10070c00f80000000080f000f078780078780000a5
:10071c000000f800f8f8c0000000f800f800000035
:10072c0000000000000000000000000000000000bd
:10073c000000000000000000070b1f001f170b003b
:10074c000100000080c0e000f0f0f000f0f0f000dc
:10075c00f0e00000ff010700f8c0ff00ff00000000
:10076c000000ff00707070007070700000000000de
:10077c000ffff80000ff7f0003ffe00000ff3f00c9
:10078c000300000000ffff0078707800ff000000fd
:10079c0000000000c0bf8f0081fff80000000000c7
:1007ac00000f3f00ff00e000f80f01000000f80010
:1007bc00ff797800707070007000000000ffff007f
:1007cc00ff1ff000e0ffff00000000000000000031
:1007dc000000000000000000c0f8fe00fffff80061
:1007ec00d0000000000000000000c000b83c070072
:1007fc000380f000f0f0f000f0f0f000e000ff00fb
:10080c00000003003fffff0000000000001f780005
:10081c00f0f0f000f0f000000000000003ffff001b
:10082c007f0000001ffffe000f0000000000000012
:10083c00ffff00000000ff000000000000f8ff00b8
:10084c0007070700073fff008000000000000100c1
:10085c00ffff3f000000000000010f007c78f0005b
:10086c00f0f0f00000000000ffffff0000071f0089
:10087c00ffff00000000000000000000000000006e
:10088c0000000e003fffff00ff7f1b000e0e0e004e
:10089c000e0e0e000f03000000e07c000f000000a5
:1008ac00000000000000000000f0f000f0f0e0009c
:1008bc00e080000000000000f0000000000080005c
:1008cc00c0f0f000f0f0f000f00000000000f000cc
:1008dc00f0f0f000f0f0e000c00000000000f000cc
:1008ec00000000000000000000000000c0f0f0005c
:1008fc00000000000000f000f0f000000080f000ac
:10090c00700000000000000000000000000000006b
:10091c0000000000000000000000000000000000cb
:10092c0000000000e0f4fe00fffefc008000000070
:10093c000001010000000000000000000000c000e9
:10094c00f02e1d0000000000000000000000000060
:10095c0000000000ff00000000000700ff00000086
:10096c000000ff0000000000003f7f00e0e0e0001e
:10097c00e0e0e0000000000000ffff00c0c0c0008d
:10098c00c0ffff000000000000ff0000000000009e
:10099c000000000000feff00073ffe00e00000002a
:1009ac000000030007f8fe003f00000000000000fc
:1009bc00000000000000000000000000000000002b
:1009cc0000000000000000000000000000000f000c
:1009dc007fffff00ff3f0f000f0f0f000f0f0f00e7
:1009ec000f0f0f000f0f0b000f0301000000000092
:1009fc000000000000000000000000000000ff00ec
:100a0c00e0e0e000e0fc3f000000000000ff000020
:100a1c0000000000e0e0e000e0e0e100f1ff000099
:100a2c0000000000ffff03000303030001000000af
:100a3c0000000000ffe0e000e0e000000080f800b3
:100a4c000f0f0f000f0fff00e00000000000000070
:100a5c00ffff00000000000000000000000000008c
:100a6c00000000000000000000000000000000007a
:100a7c00000000000000000000000000000000006a
:100a8c00000000000000000000000000000000005a
:100a9c00000000000000000000000000000000004a
:100aac000000000000000000000101000101010035
:100abc000000000000000000010000000000000029
:100acc000101010001010100000000000000010013
:100adc000100000000000000000000000000000009
:100aec0001010100010000000101000000000000f4
:100afc0000010100000000000000010000000000e7
:100b0c0000000000000000000000000000000000d9
:100b1c0000000000000000000000000000000000c9
:080b2c000000000000000000c1
:020000040000fa
:100b34000200fa00000f78000080eb0060168800c5
:100b4400611680001e007800008060006016880036
:100b5400cd42a900cd62a900cd02a900cd82a80092
:100b6400cd82a900cd02a800cd62a8000080fa00c1
:100b7400000006000200fa00000f78000080eb007d
:100b840060168800611680001e00780000806000f6
:100b940060168800cd42a800cd62a900cd02a9004c
:100ba400cd82a800cd82a900cd02a800cd62a80004
:100bb4000080fa00000006000000fa00cd22a9001f
:100bc40005e1a80000000000200480006800600027
:100bd4000000e000fcff3200cd22a80005e1a800df
:100be4000000000020048000680060000000e000b5
:100bf400fcff3200cd02a800cd82a800cd62a8007f
:100c0400cd42a80020fa2f00c9ff070000fa2f00e8
:100c1400c7ff070080fc2f00c5ff070040fa2f0024
:100c2400c3ff070000f42f00c1ff070050f22f009c
:100c3400bfff070010f82f00bdff070000f12f00d1
:100c4400bbff0700f0f22f00b9ff0700f0fa2f00f6
:100c5400b7ff07000080fa00000006000600fa0053
:100c640000fb2f002007980000f42f00b0ff0700be
:100c74000000eb00000f7800160037002e009000f3
:100c8400abff070000f12f00a9ff070000f02f00c1
:100c9400a7ff07000000eb001007980005003700cd
:100ca40000f02f00b3ff07001e0090000000e800d2
:100cb400100798009e009000f0072000808f5000dd
:100cc400f7ff36002e0090000000e800200798008f
:100cd4001e0fe8001e007800e70f5000e7ff360003
:100ce4000080fa00000006000800fa0030079800af
:100cf40000fb2f002007980000f42f008cff070052
:100d04000000eb00000f7800160037002e00900062
:100d140087ff070000f12f0085ff070000f02f0078
:100d240083ff07000000eb00100798000500370060
:100d34003e0090008fff07001e0090000000e800b6
:100d4400100798009e009000f0072000808f50004c
:100d5400f7ff36002e0090000000e80020079800fe
:100d64001e0fe8001e007800e70f5000e7ff360072
:100d74000080fa00000006000000fa002d000700c1
:100d84008dff0700b5ff0700808b2800100888003e
:100d94008460a90021058000f0ff28000080600025
:100da40000e0a000200588009460a8000003200053
:100db4002008880005e1a80000000000200480004d
:100dc400680060000000e000fcff32000080eb00df
:100dd400c5ff070005e1a800000000002004800012
:100de400680060000000e000fcff32009bff070089
:100df40005e1a800000000002004800068006000f5
:100e04000000e000fcff3200f0f02f00b6ff070006
:100e140005e1a800000000002004800068006000d4
:100e24000000e000fcff320000ff2f00aeff0700cf
:100e3400e0ff37000000fa00213a8000f08f2f0015
:100e440000806000203a8800f0ff290060198800c3
:100e5400c822ef00f00f2000001688006840a800a8
:100e64006860a8006bc0a8006ba0a800801a2600c8
:100e7400100888008460a90021058000f0ff280084
:100e84000080600000e0a000200588009460a800b5
:100e940000022000200888000080fa0000000600fc
:020000040000fa
:020000040001f9
:0457f8000ff90000a5
:020000040000fa
:020000040001f9
:0457fc007f3f0000eb
:00000001FF
